:020000040800F2
:10000000101600208D540008AB1E0008F73F0008B2
:1000100000000000000000000000000000000000E0
:10002000000000000000000000000000BF490008C0
:100030000000000000000000374B00086953000872
:10004000B34C0008E7510008635200084F54000801
:100050005B54000879540008D5540008D7540008B0
:10006000D9540008DB540008DD540008DF540008B0
:10007000E1540008E354000800000000E5540008C3
:1000800000000000E754000800000000000000002D
:10009000E954000800000000EB5400087153000808
:1000A000ED540008EF540008F1540008F354000820
:1000B000F5540008F7540008F9540008FB540008F0
:1000C00010B50400002C01D101205EE04120205C2D
:1000D000002805D1002040216054200000F011FECE
:1000E0002420412160542068006801218843216850
:1000F00008606068254901402068016120688068C7
:100100002349014020688160E068012806D1A06889
:100110008021090201432068816005E0A0688421F4
:100120000902014320688160E068022803D1802031
:100130000001216848602068406816490143206832
:1001400041602068C068124901402068C160206990
:1001500061690143A069000208432168C860E06941
:10016000216A014320680160206800680121014381
:10017000206801600020606420204121605400203C
:100180002063002042216054002010BDFFFFFFF0DB
:10019000FF7FFFFF0080000210B54123C35C202BCE
:1001A00026D14023C35C012B01D1022021E0012391
:1001B0004024035521234124035520234224035581
:1001C0000023436403685B680B4C1C4003685C605D
:1001D00041624285418D01850849C16208494163F8
:1001E000002140228154072100F0C2FC002000E0E1
:1001F000022010BD00000000FF7FFFFF0000FFFF96
:100200008302000880B50168896902681268436B3F
:10021000002B01D0436B984701BD10B50168896977
:1002200002681268CB0509D5130607D5436C012473
:100230001C43446480235B000468E3614B0509D5DB
:10024000130607D5436C08241C4344648023DB0059
:100250000468E361890509D5110607D5416C0222BE
:100260000A434264802189000268D161416C0B22FB
:100270000A40002A01D000F0B3FB10BD4121405CD0
:10028000704770B50400E06A4023E35C012B01D1A4
:10029000022087E015000E0001214022A154F10642
:1002A00038D5E90636D5618D002921D14121615C1F
:1002B000282908D180218904884204D131002000F6
:1002C00000F056FB62E04121615C29290CD13649DE
:1002D000884209D010202168C861200000F001FC8C
:1002E000200000F021FA51E010202168C8614DE0A3
:1002F00010212268D161616C04220A4362640028E3
:1003000003D080214904884240D1616C200000F074
:1003100067FB3BE0710712D5690710D5B00606D41C
:10032000606A411C61622168496A01702EE0E06ADE
:100330001D4988422AD0200000F0F6F926E0310756
:1003400006D5290704D53100200000F045F91DE04D
:10035000B1071BD5A90719D5618D00290DD0606A99
:10036000007821688862606A401C6062608D401E6F
:100370006085208D401E208508E080214904884248
:1003800001D0002802D1200000F0CEF9B00605D53A
:10039000A80603D53100200000F05EFA00204021BD
:1003A0006054002070BD00000000FFFF1CB5040079
:1003B0004020205C012801D1022090E00120402350
:1003C000E054C80610D5D0060ED510202168C861AB
:1003D000606C0421014361641221200000F0C8FB1D
:1003E000200000F07EFB76E008064DD550064BD588
:1003F000206800684021884321680860608D0028DB
:1004000035D0206840688105890D608DFF2804D9AA
:10041000FF20208580235B0409E0608D2085E06A51
:100420006C4A904201D0E36A01E080239B040020E3
:100430000090228DD2B289B2200000F084FB608D42
:10044000218D401A60854120205C222807D1206838
:100450000068802109020143206801603BE02068B8
:1004600000688021C90101432068016033E02068F1
:100470004068800103D4200000F029F92BE04021DE
:10048000200000F0ADFA26E048061DD550061BD529
:10049000608D002813D12068406880011BD4E06A79
:1004A0004C49884207D1206840688021C901014336
:1004B000206841600FE0200000F009F90BE04021C6
:1004C000200000F08DFA06E0880604D5900602D5DB
:1004D000200000F056F9002040216054002016BD95
:1004E00070B50400E06A00234025655D012D01D14F
:1004F00002206DE001254026A555CD0655D5D5062F
:1005000053D5C0252D021540002D4AD0E56B002D96
:1005100007D0150405D5E56B2D686D68002D00D159
:100520000123A56B002D07D0520405D5A26B1268DC
:100530005268002A00D10123012B20D14122A25C64
:10054000282A07D180229204904203D1200000F093
:100550000FFA39E04121615C29290CD11D498842FB
:1005600009D010202168C861200000F0BAFA2000EC
:1005700000F0DAF828E010202168C86124E010219A
:100580002268D161616C04220A436264002803D0AE
:1005900080214904884217D1616C200000F020FAC4
:1005A00012E010202168C8610EE0080705D5100789
:1005B00003D5200000F010F806E0880604D5900668
:1005C00002D5200000F048F90020402160540020AE
:1005D00070BD00000000FFFF70B504002068806956
:1005E000000C0100C907C90F20688069000CFE22B9
:1005F0000240206880688005800D2068C368FE2066
:10060000184092B2C9B2200000F020FC4120205CCA
:1006100028210140282953D120688069000C060058
:10062000F607F60F20688069000CFE25054020685B
:1006300080688205920D2068C168FE200840E1684C
:1006400002292ED1ADB20621294013009BB2DB094D
:1006500006251D40A94214D1A06C401CA064A06CCA
:10066000022833D10020A06408202168C86100203E
:100670004021605492B23100C9B2200000F0E6FB84
:1006800024E005000421200000F0C2FA00204021EF
:1006900060542A0092B23100C9B2200000F0D6FBAB
:1006A00014E00421200000F0B3FA0020402160543F
:1006B0002A0092B23100C9B2200000F0C7FB05E069
:1006C00008202168C86100204021605470BD10B529
:1006D00004000020422160544120205C212811D1D7
:1006E00020204121605411202063002060630121FB
:1006F000200000F08DFA002040216054200000F01E
:1007000009FC10E0202041216054122020630020C9
:1007100060630221200000F07BFA00204021605439
:10072000200000F0F8FB10BD10B5040000204221AD
:1007300060544120205C29280FD128204121605499
:10074000212020630121200000F062FA00204021D6
:100750006054200000F0E0FB12E04120205C2A28D9
:100760000ED1282041216054222020630221200044
:1007700000F04EFA002040216054200000F0CDFB34
:1007800010BD10B5040020202268D06120684068A8
:10079000914A02402068426000202063002060638C
:1007A0008E48E062C80606D510202168C861606CDA
:1007B000042101436164200000F093F9032120002B
:1007C00000F026FA606C4121615C602901D00028AC
:1007D00004D0616C200000F003F93CE04120205C73
:1007E00021281AD12020412160544220205C402839
:1007F00009D1002042216054002040216054200093
:1008000000F08CFB27E000204221605400204021B2
:100810006054200000F07EFB1DE04120205C222877
:1008200019D12020412160544220205C402809D168
:10083000002042216054002040216054200000F03C
:100840006EFB08E0002042216054002040216054EB
:10085000200000F060FB10BD70B504000E002068A1
:10086000056820202168C8610721200000F0D0F928
:1008700020684068802109020143206841602068A7
:1008800040685549014020684160200000F029F986
:10089000680407D5A06B00280DD0A06B00684068E5
:1008A000608508E0280406D5E06B002803D0E06BE3
:1008B000006840686085700711D504208643206871
:1008C000406A616A0870606A401C6062208D00287E
:1008D00005D0208D401E2085608D401E6085608D76
:1008E000002803D0606C0421014361640020206370
:1008F00000204221605400206063606C00280CD00E
:10090000616C200000F06CF84120205C28282ED17A
:100910003100200000F02CF829E0E06A7A49884292
:100920000ED02000FFF700FF7748E0622020412131
:100930006054002040216054200000F0F1FA16E0DD
:100940004120205C222809D1202041216054002030
:1009500040216054200000F0E0FA08E0202041210E
:100960006054002040216054200000F0D5FA70BD92
:1009700010B504006448E06200202063202041227A
:10098000A05400204222A05400206063480715D5DF
:10099000042081432068406A616A0870606A401CD4
:1009A0006062208D002809D0208D401E2085608D3A
:1009B000401E6085606C04210143616407212000B2
:1009C00000F026F910202168C86100204021605401
:1009D000200000F0A5FA10BD00E800FE0000FFFFB7
:1009E00010B504004120205C00224223E254464A14
:1009F000E26200226285626C11436164C0B2282801
:100A000005D0C0B2292802D0C0B22A280BD10321B8
:100A1000200000F0FDF828204121605400202063D0
:100A20003A4860630EE00721200000F0F1F8412011
:100A3000205C602802D020204121605400202063E7
:100A40000020606320680068400418D520680068B2
:100A50002F49014020680160A06B002840D02D483C
:100A6000A16B8863002040216054A06B00F05EFA07
:100A7000002835D0A06BA16B896B884730E02068D7
:100A80000068000418D520680068234901402068E8
:100A90000160E06B002823D01E48E16B88630020D2
:100AA00040216054E06B00F041FA002818D0E06B60
:100AB000E16B896B884713E04120205C602809D1F5
:100AC000202041216054002040216054200000F08B
:100AD00059FA05E0002040216054200000F053FA4C
:100AE00010BD00B501688969890702D50021026837
:100AF000916201688969C90705D401688969012281
:100B00000A430068826100BD0000FFFF8302000805
:100B1000FFBFFFFF1D0B0008FF7FFFFF80B5806A4E
:100B20000021826B91630021C26B91634121415C82
:100B3000602905D120214122815400F023FA01E0EF
:100B400000F021FA01BDF0B4049C05686D68660DE3
:100B50002C4F3743BD4389B28905890D2943D2B251
:100B600012040A4313431C4300684460F0BC7047FE
:100B700010B50022436B244CA34203D0436B234C9B
:100B8000A3421ED189B24B0702D51300B8221A43E3
:100B900089B211230B40112B02D1130090221A436A
:100BA00089B212230B40122B02D1130020221A43C8
:100BB00089B212230B40122B1DD1110040220A438F
:100BC00019E089B24B0702D51300B8221A4389B243
:100BD000CB0702D51300F2221A4389B28B0702D544
:100BE0001300F4221A4389B212230B40122B02D1B4
:100BF000110020220A43016809680A430068026064
:100C000010BD0000FF63FF03AD030008E10400080E
:100C100010B5002289B2CB070BD5130042221A432C
:100C20004123C35C28241C40282C02D01300B0228E
:100C30001A4389B28B070BD5130044221A43412370
:100C4000C35C28241C40282C02D01300B0221A4375
:100C500089B24B0702D51300B8221A4389B2112377
:100C60000B40112B02D1130090221A4389B2122398
:100C70000B40122B02D1130020221A4389B21223F7
:100C80000B40122B02D1110040220A43016809686F
:100C900091430068016010BD80B535483549086052
:100CA0003548344948608A203249886001203149FA
:100CB000C860802000022F49086100202D4948614A
:100CC00000202C49886100202A49C8610020294958
:100CD00008622848FFF7F4F9002801D000F018F95D
:100CE0000021244800F050F9002801D000F010F94C
:100CF0000021204800F07AF9002801D000F008F91E
:100D000001BD10B586B0040001A8142100F0BAF9A5
:100D100020681749884228D11848006802210143F9
:100D200016480160154800680221084000900098AC
:100D3000C020019012200290012003900320049013
:100D40000120059001A90E4800F09EF90D480068A9
:100D50008021890301430B480160012200211720F3
:100D600000F0EBFA172000F0EDFA06B010BD00001D
:100D70000054004048110020140E00002C100240C6
:100D8000000400503810024080B500F0F1FA00F085
:100D900065F800F003FB00F031FB00F0D3FB00F03E
:100DA000E1FCFFF779FF00F031FD10E01E4802780A
:100DB0001E4801681E4800F08BFD1E4908701A4845
:100DC00002781A491A4800F0B1FD1B49087017480B
:100DD000026892B216491948FFF7DEF9002801D0DF
:100DE00000F096F81548FFF749FA2028FAD10F4984
:100DF0000F4801F04AF8124800780028D6D00B4876
:100E0000016889B20A4801F035F80E4800780028D8
:100E1000DDD1114800780028D9D00B480068804700
:100E200000200D490870D2E718000020E8110020CA
:100E3000DC0C0020041200200512002048110020C4
:100E40000212002094110020EC1100202C480170A7
:100E50002C480280704700000312002080B59CB02F
:100E60000EA8382100F00EF96846142100F00AF9A6
:100E700005A8242100F006F9234800682349014011
:100E8000802000010843204908601A200E900920A4
:100E90001190102012900120139001201590002035
:100EA0001690C02000021790002018900EA800F0A5
:100EB000FDFF002801D000F02BF80F20009000204B
:100EC0000190002002900020039000200490002157
:100ED000684601F0D9FA002801D000F019F809207D
:100EE000059002200890802080010B9005A801F059
:100EF0002DFC002801D000F00BF81DB000BD000053
:100F0000021200200012002000700040FFE7FFFFE7
:100F100000B5FEE7704770477047704770477047ED
:100F200070470268531C03601170704710B50024AD
:100F30002521415C022903D00421C16301241EE064
:100F4000016809680E22914302681160016809680E
:100F5000012291430268116001214422825C1C231A
:100F600013409940026C51600121252281540021D7
:100F700024228154816B002901D0816B8847200095
:100F8000C0B210BD7047704700B54122825C202A74
:100F90002AD14022825C012A01D1022025E00122CF
:100FA0004023C25424224123C25402681268012300
:100FB0009A4303681A6002681268244B134002685F
:100FC00013600268126811430268116001680968C1
:100FD00001220A4301680A60202141228154002134
:100FE00040228154002000E0022000BD00B54122D3
:100FF000825C202A27D14022825C012A01D1022072
:1010000022E001224023C25424224123C254026818
:10101000126801239A4303681A60026812680C4B35
:10102000134009021943026811600168096801222E
:101030000A4301680A602021412281540021402294
:101040008154002000E0022000BD0000FFEFFFFF00
:10105000FFF0FFFF130030B414001500103902D365
:1010600010393CC0FCD2490700D30CC000D504C0E5
:10107000890002D30280801C002900D5027030BC98
:10108000704700000022E5E7F0B503000A000024E5
:101090000020002037E0062103E068498B42FAD1A6
:1010A00005212600B607B60F04277E43B140014351
:1010B0006348A60804277E43815162480068A8431C
:1010C0005168C90300D528435E4908605E4800683E
:1010D000A8435168890300D528435B4908605B48F1
:1010E0000068A8435168C90200D5284357490860E1
:1010F00057480068A8435168890201D50543280074
:1011000053490860641C1068E040002800D194E056
:1011100010680125A5400540002DF3D05068022835
:1011200002D05068122819D1E00804214843181849
:10113000006A0F2126007607760F04277E43B14010
:1011400088431169260077077F0F04267743B9404B
:101150000143E00804267043181801625068012812
:1011600008D05068022805D05068112802D0506875
:10117000122818D198680321260002277E43B14027
:101180008843D168260002277E43B140014399601D
:1011900058680121A140884356683100C906C90F2B
:1011A000A1400143596018680321260002277E43AD
:1011B000B140884311798907890F260002277E43B1
:1011C000B14001431960D8680321260002277E43FD
:1011D000B14088439168260002277E43B140014315
:1011E000D9605068C0008DD51F48006801210143B7
:1011F0001D4801601248A1080426714340580F2180
:101200002600B607B60F04277E43B1408843A021CD
:10121000C9058B4201D1002143E714498B4201D11A
:1012200001213EE712498B4201D1022139E71149E0
:101230008B4200D031E7032133E7F0BD001C0050A2
:10124000080001400004014004040140080401407A
:101250000C04014000B5D2B2002A02D089B28161EB
:1012600001E089B2816200BD3410024000040050E8
:1012700000080050000C00500121C006C00E814043
:10128000354801607047F0B540B2002821D5334B96
:1012900040B20207120F083A9208042462432F4C0E
:1012A00040B205072D0F083DAD080426754364596B
:1012B000FF258607B60F08277E43B540AC4389015A
:1012C000C9B28007800F08256843814021439950A7
:1012D0001AE0234A40B2830804246343D258FF2310
:1012E0008407A40F08256C43A3409A438901C9B21F
:1012F00083079B0F0824634399401143184A40B267
:101300008008042358431150F0BD80B5411E80224F
:101310005204914201D301200EE0401E11490860A1
:1013200003210020C043FFF7AEFF00200E490860F4
:1013300007200E490860002002BD80B540B2FFF7CB
:10134000A2FF01BD80B540B2FFF796FF01BD80B599
:10135000FFF7DBFF02BD000000E100E01CED00E054
:1013600000E400E014E000E018E000E010E000E03D
:1013700010B5002408480068402101430648016078
:10138000002001F0F7FA002801D0012401E001F06B
:101390000BFB2000C0B210BD0020024080B588B019
:1013A000684601000831684601F046FB002801D07C
:1013B000012000E00020C0B2002804D068460FC819
:1013C00001F002FC06E004A801F022FC04A80FC80A
:1013D00001F0FAFB09B000BD80B588B004A801F0A7
:1013E00005FC684604A9102201F02CFD68460100A6
:1013F0000831684601F076FB09B000BD80B586B0C3
:1014000068461421FFF73EFE494800680421014365
:101410004748016046480068042108400590059847
:10142000434800688021014341480160404800680A
:1014300080210840059005983D480068012101433E
:101440003B4801603A4800680100C907C90F05918F
:101450000598374800680221014335480160344847
:10146000006802210840059005980022F0218901BA
:101470003048FFF7EFFE0022C0214901A020C0053F
:10148000FFF7E8FEE020000200900320019000201A
:10149000029069462848FFF7F7FD032000900320DB
:1014A00001900020029069462448FFF7EDFD244892
:1014B0000090032001900020029069461D48FFF72C
:1014C000E3FDE02040010090012001900020029007
:1014D0000020039069461748FFF7D6FD8020800161
:1014E0000090112001900020029000200390694696
:1014F0001048FFF7C9FD81200002009003200190F1
:10150000002002906946A020C005FFF7BDFDC02065
:1015100040010090012001900020029000200390E3
:101520006946A020C005FFF7AFFD07B000BD00BFB2
:101530002C1002400004005000080050001C005015
:101540003CC30000E0B5754803C86A4603C2083AC8
:1015500073487449086000207249C863C0200006BF
:101560007049486000206F49886003206D49886396
:1015700001206C49086100206A49C86001206A495D
:101580000870002069490870002066498862FF20C1
:10159000C2306449486200206549087004206149EE
:1015A000486100205F49086301205E49886101208D
:1015B0005C49486301205B49C8615A4801F070FCEE
:1015C000002801D0FFF7A4FC0120009080204001FA
:1015D00001906946534801F040FE002801D0FFF712
:1015E00097FC5448009069464E4801F036FE0028AA
:1015F00001D0FFF78DFC504800906946494801F042
:101600002CFE002801D0FFF783FC4C48009069466F
:10161000444801F022FE002801D0FFF779FC484839
:10162000009069463F4801F018FE002801D0FFF7FE
:101630006FFC4448009069463A4801F00EFE0028CD
:1016400001D0FFF765FC404800906946354801F03D
:1016500004FE002801D0FFF75BFC3C48009069467F
:10166000304801F0FAFD002801D0FFF751FC38485E
:10167000009069462B4801F0F0FD002801D0FFF7EB
:1016800047FC344800906946264801F0E6FD0028F2
:1016900001D0FFF73DFC07BD10B586B0040001A8DE
:1016A0001421FFF7EFFC20681D49884234D12A48F5
:1016B00000688021890001432748016027480068AD
:1016C0000121014325480160244800680100C90741
:1016D000C90F0091009821480068022101431F486A
:1016E00001601E4800680221084000900098EF2029
:1016F0000190032002900020039001A9A020C005C2
:10170000FFF7C2FC03200190032002900020039009
:1017100001A91348FFF7B8FC06B010BDB454000887
:1017200000240140EC1000200C1100200D110020BD
:101730001811002002000004040000080800000C3A
:1017400020000014400000188000001C0001002050
:101750000002002400000244341002402C10024019
:1017600000040050E0B5244803C86A4603C2083AA2
:10177000224823490860224801F0B6FE002801D023
:10178000FFF7C6FB00200090002001900022694670
:101790001B4801F0BFFE002801D0FFF7B9FB07BDD1
:1017A00010B586B0040001A81421FFF76BFC206877
:1017B000124988421ED113480068802189050143DF
:1017C0001048016010480068012101430E48016083
:1017D0000D4800680100C907C90F0091009810204A
:1017E0000190032002900020039001A9A020C005D1
:1017F000FFF74AFC06B010BDBC540008007400405E
:10180000D0110020381002402C10024080B52C4826
:101810002C490860E12040022A49486000202949FB
:10182000886000202749C8600020264908610C20F4
:101830002449486100202349886100202149C8616A
:1018400000202049086200201E4948621D4801F01E
:1018500089FE002801D0FFF75BFB01BD10B586B003
:10186000040001A81421FFF70DFC206814498842E8
:1018700023D1154800688021C90101431248016045
:101880001248006801210143104801600F480068B8
:101890000100C907C90F00910098C020C000019045
:1018A0000220029000200390032004900420059061
:1018B00001A9A020C005FFF7E7FB06B010BD00009E
:1018C000003801406C100020341002402C100240FF
:1018D0007FB504000D001600C8484078002812D1DA
:1018E000684601F095F968460FC801F06DF93300BC
:1018F000DBB22A000121200002F045FA002809D1BC
:101900000120C04310E0BD4880780028EFD00020BF
:10191000C04309E00120B94988702900200000F087
:1019200031F80021B54A917004B070BD7FB5050053
:101930000C001600B1484078002814D1684601F028
:1019400067F968460FC801F03FF90120AB4988707C
:101950003200D2B22100280000F07CF90021A74A11
:10196000917004B070BDA54880780028EDD0320099
:10197000D2B20521280002F03BFA092020600020A5
:10198000C043EEE738B50A0001784C06640E0178D2
:101990000D00EDB2ED09E4B2012C0FD11100891F49
:1019A000FF23FC33994202D30320C04315E0521FAA
:1019B0002900C9B2401C00F011F80EE0092A02D03B
:1019C0000220C04309E0401C02F024FA0200290072
:1019D000C9B22000C0B200F02FF832BD38B5874B35
:1019E0001B78012B02D00420C04324E00C0021000E
:1019F000824B9B79C9B2994202D10520C0431AE0BB
:101A000015007E4989697D4AD2695219914202D2F4
:101A10000320C0430FE07949CB692A0001007748D1
:101A2000C07902F033FA7548C06940197349C8613A
:101A300072488471002032BD80B5C0B230230340AB
:101A4000DBB2002B06D0102B09D0202B0CD0302B72
:101A50000ED012E0C9B2C0B200F012F80FE0C9B265
:101A6000C0B200F07EF80AE0C0B200F0A0F806E0D4
:101A7000C9B2C0B200F0C4F801E00620C04302BD04
:101A800010B50C00C0B2002804D0022806D00328EC
:101A900040D063E000F0CAF9002061E05748C06917
:101AA0005649096A401855498969884202D3062077
:101AB000C0432EE051484079E4B2844202D006206F
:101AC000C04326E04D48007803280DD100204B4943
:101AD000C8614A4840790121414048484171042089
:101AE00046490870002014E04448007804280ED1CC
:101AF0004248006A4149C96908184049C8613F48DD
:101B00004079012141403D484171002001E006201B
:101B1000C04325E039480078032806D037480078CC
:101B2000042802D00620C04317E020003349097979
:101B3000C0B2884202D00620C0430EE02F48C079D0
:101B400002F095F92200D2B22C48C179C74801F0C1
:101B5000E5F8002029490870002001E00620C04374
:101B600010BD38B504000D0000F060F92348057180
:101B7000224885712148C4710020204988610020D5
:101B80001E49C86100201D4908622A00D2B2210006
:101B9000C9B2B64801F098F8002803D002201749CE
:101BA000087002E0012015490870002032BD1CB504
:101BB000040000F03BF92100C9B2AC4801F060F824
:101BC0000E4908710D4800790C4948710B48C471E1
:101BD00000200A49C86100200849086200200090DE
:101BE00069462000C0B202F023F9009803498861D9
:101BF000032002490870002016BD00009411002047
:101C000070B504000D00160000F010F910480571C1
:101C10000F4885710E48C4710D48866100200C493B
:101C2000C8612A00D2B22100C9B2904801F04CF834
:101C3000002803D002200649087007E0012004496B
:101C4000087031002000C0B202F01FF9002070BD02
:101C50009411002070B505000C001600844800782F
:101C6000002806D002281CD01BD3042812D00AD387
:101C70001EE03200D2B20021280002F0B9F809209B
:101C80002060002020E03200D2B22100280000F0C5
:101C90001CF819E03200D2B22100280000F024F82C
:101CA00012E03200D2B22100280000F061F80BE00F
:101CB00000F0BCF83200D2B20021280002F098F8FF
:101CC000092020600720C04370BD1CB50C00684986
:101CD0008B69D2B2009266490A79042102F06DF84C
:101CE00009202060002016BDF8B505000F00160081
:101CF0005F48C0695E49896988420CD300F096F854
:101D00003200D2B20021280002F072F809203860B7
:101D10000720C0432BE0FF24FC3455488069544918
:101D2000C969401AFF21FC31884200D204005048A2
:101D300004624F484079C0010121014329704C4899
:101D4000C3692200691C4A48C07902F080F8330058
:101D5000DBB22200521C0021280001F0FBFF010031
:101D60002819401C02F04DF8641D3C600020F2BDB3
:101D70007CB50D003E49097802290ED1D2B20092FD
:101D800000233B490A79032102F017F80920286053
:101D9000002037490870002047E000243449C96911
:101DA000334B9B69994235D3D2B20092002330491C
:101DB0000A79032102F001F80920286000202C494B
:101DC00008702B48C5792A4806792948C0793021FE
:101DD0000140C9B2102902D030290CD017E02448A4
:101DE000C07902F056F83200D2B22900C9B21F48B9
:101DF00000F094FF18E01E48C07902F048F8320065
:101E0000D2B22900C9B2194800F088FF0CE00724BB
:101E1000E44309E0D2B20092002315498A790221F5
:101E200001F0CBFF09202860200076BD80B5104866
:101E30000078401E03D0801E01280CD911E00C4808
:101E4000C07930210140102904D002210848C0790E
:101E500002F01EF805E002210548C07902F014F8EE
:101E6000FFE700200249087001BD00009C1100201E
:101E70009411002000B502E000220270401C0A000C
:101E8000511E92B2002AF7D100BD00B5002207E032
:101E90000378002B02D013005B1C0B60401C521C0B
:101EA00080239B009A42F3DB00BDFEE7F8B50400F7
:101EB000002C01D10120D1E2B44800680C27074072
:101EC000B24805688020400205402078C00763D5ED
:101ED000082F05D00C2F0CD180204002854208D15C
:101EE000AB480068800357D56068002854D10120B2
:101EF000B4E2606880214902884207D1A4480068A2
:101F0000802149020143A248016026E06068A021C7
:101F1000C90288420ED19E4800688021C90201434F
:101F20009B4801609A480068802149020143984813
:101F3000016012E0964800689649014094480160AB
:101F4000934800688021490208400090009890481A
:101F50000068914901408E480160606800280DD0FA
:101F600001F0ECFF06008A480068800314D401F0F9
:101F7000E5FF801B6528F6D303206FE201F0DEFF4A
:101F8000060083480068800306D501F0D7FF801B58
:101F90006528F6D3032061E22078800752D5E068F7
:101FA000042F03D00C2F2DD1002D2BD17849096897
:101FB000490703D5002801D101204FE2C54909682E
:101FC000C54A0A40216909021143C24A1160704999
:101FD00009680922914308436D49086000F03CFB01
:101FE000BE496A4A126812091207120F895CC8407A
:101FF000BB490860002000F0BDFCC0B2002821D021
:10200000C0B22BE200282BD0614909680922914314
:1020100008435F49086001F091FF05005C480068D3
:10202000400706D401F08AFF401B0328F6D30320A3
:1020300014E2A8480068A84901402069000208434A
:10204000A44908602078C00672D5002F47D15048B7
:102050000068800518D5E069002815D10120FDE150
:102060004B480068012188434949086001F066FF38
:102070000500474800684007E4D501F05FFF401BBA
:102080000328F6D30320E9E192480068BA490140E9
:10209000606A08438F4908608E4800680002000AA1
:1020A000216A090601438B4801600120616A490BDE
:1020B000491C88408021090248438849334A1268F4
:1020C00012091207120F895CC84085490860002078
:1020D00000F050FCC0B200282AD0C0B2BEE1E069D6
:1020E00000283FD02A480068802149000143284841
:1020F000016001F023FF050025480068800506D433
:1021000001F01CFF401B0328F6D30320A6E1714811
:10211000006899490140606A08436E4908606D484B
:1021200000680002000A216A09060143694801604B
:102130002078000746D5606900282FD0B84800688D
:1021400001210143B648016001F0F8FE0500B448E2
:102150000068800736D401F0F1FE401B0328F6D357
:1021600003207BE10A480068BD490140084801603E
:1021700001F0E4FE0500064800688005D8D501F0AE
:10218000DDFE401B0328F6D3032067E10C1002405C
:1021900000100240FFFFFEFFFFFFFBFFA0480068AA
:1021A000012188439E49086001F0C8FE05009C4853
:1021B0000068800706D501F0C1FE401B0328F6D356
:1021C00003204BE12078400700D494E00025A54887
:1021D0000068C00007D4A348006880214905014376
:1021E000A04801600125A0480068C00514D49E489D
:1021F00000688021490001439B48016001F09EFE78
:10220000060099480068C00506D401F097FE801BBF
:102210006528F6D3032021E1A06880214900884287
:1022200007D17F4800688021490001437C48016054
:102230002FE0A06800280CD1794800688849014047
:102240007748016076480068884901407448016019
:102250001FE0A068A021C90088420ED17048006824
:102260008021C90001436E4801606D4800688021EB
:10227000490001436A4801600BE0694800687849F9
:102280000140674801606648006878490140644839
:102290000160A06800280ED001F050FE06006048E2
:1022A000006880051ED401F049FE801B70498842F9
:1022B000F5D30320D2E001F041FE06005848006843
:1022C00080050FD501F03AFE801B69498842F5D39D
:1022D0000320C3E004100240FFE0FFFF7C5400082D
:1022E0000C000020EDB2012D05D15E480068614967
:1022F00001405C480160207880063FD5A069002835
:1023000020D05D480068012101435B4801605B48C3
:102310000068012101435948016059480068802143
:10232000890101435648016001F008FE050052484A
:102330000068800722D401F001FE401B0328F6D379
:1023400003208BE04C480068012188434A4908601B
:102350004B4800684B4901404948016001F0EEFDDF
:10236000050045480068800708D501F0E7FD401BDF
:102370000328F6D3032071E0FF1FFFFFA06A0028A7
:102380006BD00C2F4ED0A06A022834D1AD48006823
:10239000AD490140AB48016001F0D0FD0500A948FE
:1023A0000068800106D501F0C9FD401B0328F6D363
:1023B000032053E0A5480068A5490140E06A0843AE
:1023C000216B0143606B0843A04908609D48006889
:1023D0008021490401439B48016001F0AFFD0400E6
:1023E00098480068800138D401F0A8FD001B03283C
:1023F000F6D3032032E093480068934901409148A6
:10240000016001F09BFD04008E480068800124D526
:1024100001F094FD001B0328F6D303201EE000BF4B
:1024200050100240A06A012801D1012016E087481F
:102430000068802149020140E26A91420BD1F021FB
:1024400089030140226B914205D1C021090401405A
:10245000606B814201D0012000E00020F2BD00004D
:10246000FFFEFFFF3810024000700040FFFBFFFF3F
:1024700089130000FFFFFFEF0810024034100240F4
:1024800020000140FFDFFFFF70B50400002C01D1E8
:102490000120D5E00D006F4800680100C907C90F91
:1024A000A9420FD26B48006801218843284369493B
:1024B0000860684800680100C907C90FA94201D037
:1024C0000120BDE02078800707D560480068F02132
:1024D0008843A16801435D4801602078C0076CD53E
:1024E0006068022805D157480068800319D401208C
:1024F000A6E06068032805D152480068800110D426
:1025000001209DE06068012805D14E480068400721
:1025100007D4012094E04B480068800501D40120D5
:102520008EE04A48006803218843616801434748B8
:10253000016001F003FD0600606802280DD14348E8
:1025400000680C210140082937D001F0F7FC801BFE
:1025500071498842F3D3032072E0606803280DD1EB
:102560003A4800680C2101400C2926D001F0E6FC15
:10257000801B69498842F3D3032061E06068012829
:102580000DD1324800680C210140042915D001F01A
:10259000D5FC801B60498842F3D3032050E02B48D0
:1025A00000680C210140002907D001F0C7FC801B06
:1025B00059498842F3D3032042E0264800680100CD
:1025C000C907C90F8D420FD22248006801218843F4
:1025D0002843204908601F4800680100C907C90F47
:1025E000A94201D001202BE02078400707D51748E9
:1025F00000684A490140E0680843144908602078AF
:10260000000708D511480068454901402069C0000D
:1026100008430E49086000F01FF842490B4A12684F
:1026200012091207120F895CC8403F490860002058
:1026300000F0A0F9C0B2002801D0C0B200E0002034
:1026400070BD000000100240FFFFFFFE0C100240B2
:10265000FFFF02FF0020024000B5284801680C205F
:102660000840042804D008280AD00C280AD029E001
:102670002F480068C00601D52E4800E02E482CE007
:102680002E482AE02E488A0C1207120F805C890D12
:102690008907890F491C194A1268D20304D5274AB1
:1026A000504301F051FC0CE0214A1268D20604D5D7
:1026B000204A504301F048FC03E01F4A504301F018
:1026C00043FC0AE01F480068400B4107490F012006
:1026D000491C884080210902484300BD1248006817
:1026E000704780B5FFF7FAFF1749104A1268120ABF
:1026F0005207520F895CC84002BD00000C10024016
:1027000080B5FFF7EBFF1049084A1268D20A52075A
:10271000520F895CC84002BD89130000FFF8FFFF1B
:10272000FFC7FFFF7C5400080C0000200C10024083
:102730000010024000093D000024F40000127A005D
:102740009C54000804100240CC54000870B50400EA
:102750002068822109010140002900D1AAE02078E7
:10276000800620680005002574480068C00007D472
:1027700072480068802149050143704801600125C5
:102780006F480068C00514D46D4800688021490076
:1027900001436B48016001F0D1FB06006848006806
:1027A000C00506D401F0CAFB801B6528F6D30320C0
:1027B000C3E064480168C020800308406168C0220B
:1027C00092030A40904205D1A168C02292030A40B8
:1027D00090420DD06068C02189020140C020800273
:1027E000814205D157480068800301D50120A4E04B
:1027F00055480168C02080020840002835D0616833
:10280000C02292020A40904202D02178890608D460
:10281000A168C02292020A40904226D0206800059A
:1028200023D549480168494808404749096880223A
:1028300012030A4344490A6043490968444A0A406A
:1028400041490A6040490860C0050ED501F076FB99
:1028500006003D480068800507D401F06FFB801B2F
:102860003C498842F5D3032067E06068C0218902B3
:102870000140C020800281420AD1324800683649B6
:1028800001406068C022920302400A432D48026062
:102890002D4800686168C02292020A4002432A481B
:1028A0000260EDB2012D05D1244800682B4901409A
:1028B000224801602078C00707D529480068032115
:1028C0008843E1680143264801602078800707D5E6
:1028D000234800680C218843216901432048016096
:1028E0002078400707D51E4800681E4901406069EE
:1028F00008431B4908602078000707D5184800687E
:1029000019490140A069084315490860207840062C
:1029100007D51348006815490140206A084310494B
:1029200008602078000607D50D480068104901406E
:10293000E06908430A490860002070BD3810024071
:10294000007000400010024050100240FFFFFCFFEA
:10295000FFFFF7FF89130000FFFFCFFFFFFFFFEF2F
:102960004C100240FFF3FFFFFFCFFFFFFFFFFFFB15
:10297000FFFFF3FF38B5050000240A480068FA217C
:10298000890001F0E1FAFEF7E2FC002801D0012401
:1029900005E0290000220020C043FEF7CEFC200005
:1029A000C0B232BD0C00002080B50B480068012188
:1029B0000143094801600948006880214905014335
:1029C00006480160012200211720FEF7B6FC1720FF
:1029D000FEF7B8FC01BD00BF3410024038100240C1
:1029E00030B50C00002102E00588491B801C250041
:1029F0006C1EEDB2002DF7D11800431EC0B20028A6
:102A000003D01088091A921CF6E7080080B230BD86
:102A100000B5002004E0801C442101F095FA080074
:102A20005E494118098889B2491C5D4A821812889A
:102A300092B29142EFD000BD70B504000D00FFF7D7
:102A4000E7FF00281AD157480088208056480088A0
:102A5000608056480088A08055480088E08055482E
:102A60000088288054480088688054480088A880DE
:102A700053480088E8805348068823E0801E49496F
:102A800041180988218048494118098861804749CF
:102A900041180988A180464941180988E1804549C3
:102AA00041180988298044494118098869804349A7
:102AB00041180988A980424941180988E98041499B
:102AC0004018068804232A0004212000FFF788FF0D
:102AD00080B2B6B2801B002801D1012000E00020A6
:102AE000C0B270BDF8B506000D0001F085FAFFF721
:102AF0008FFF040004232A0004213000FFF770FF39
:102B00000700328827482118012001F097FA7288BF
:102B100025482118012001F091FAB2882348211894
:102B2000012001F08BFAF28821482118012001F0E0
:102B300085FA2A881F482118012001F07FFA6A8847
:102B40001D482118012001F079FAAA881B48211894
:102B5000012001F073FAEA8819482118012001F0D8
:102B60006DFABFB23A0017482118012001F066FA49
:102B70000A48201805886D1CA41C2000442101F07F
:102B8000E3F906480C18ADB22A002100012001F03B
:102B900055FA208801F048FAF1BD0000000008084D
:102BA000020008084400080888000808CC0008084B
:102BB000100108085401080898010808DC010808F9
:102BC00020020808640208080FB581B000200E49F1
:102BD00008700E4801A9102200F034F900200A49BB
:102BE000887001200849487005B000BD1FB5040079
:102BF00068460649102200F025F920006946102297
:102C000000F020F91FBD0000941100209C1100204D
:102C1000F8B500216A46118000216A4651800021E2
:102C20006A46918000216A46D18000216A4611815E
:102C300000216A46518100216A46918100216A463D
:102C4000D1816946102200F0FDF805B000BD1CB529
:102C50000400C9B2684600F098F8684680880028E9
:102C600002D10020C0430AE0009802214843205AC4
:102C700069468988084201D0012000E0002016BD85
:102C80001CB50400C9B2684600F07FF86846808829
:102C9000002802D10020C04315E0009802214843DB
:102CA0002018008969468988084201D100200AE07D
:102CB000009802214843205A69468988084201D079
:102CC000002000E0012016BD7CB504000E001500B8
:102CD0003100C9B2684600F058F86846808800287C
:102CE00001D1002019E0200000990222514341182F
:102CF00009896A469288114201D100200DE0EDB2A7
:102D0000002D00D00125EDB23100C9B2FFF79FFFC1
:102D1000854201D1012000E0002076BD3EB50400CF
:102D20001500C9B2684600F030F86846808800286F
:102D300002D10020C04327E0009802214843201818
:102D4000008969468988014300980222504320186F
:102D50000181EDB2002D0BD0009802214843205A8A
:102D600069468988014300980222504321520AE0B3
:102D7000009802214843205A69468988884300996F
:102D800002225143605200203EBDC0B50200C9B2CC
:102D900070200840502819DBC9B230200840C0B26A
:102DA000102804D0202805D0302806D007E00120C4
:102DB000009004E00220009001E003200090012038
:102DC0000907090F88406946888036E00020009096
:102DD000C9B210290ED0112910D0122912D02029E1
:102DE00014D0212916D0222918D030291AD03129FF
:102DF0001CD01FE00120694688801EE00220694641
:102E000088801AE004206946888016E00820694618
:102E1000888012E01020694688800EE020206946F4
:102E200088800AE040206946888006E08020694664
:102E3000888002E0002069468880684603C803C293
:102E4000083A03BD124207D08B0706D00B78491C05
:102E50000370401C521EF7D87047830706D00B78CA
:102E6000491C0370401C521EF9D1704770B4103ACF
:102E700003D378C9103A78C0FBD2530701D318C9DD
:102E800018C001D508C908C0D20704D30B88038035
:102E9000891C801C002A01D50B78037070BC704718
:102EA00010B50400002C01D1012002E1606D002862
:102EB00007D10020A0650020502160542000FEF7BB
:102EC000EBFB606DC00603D420688068400708D51E
:102ED000606D102101436165002050216054012084
:102EE000E7E0606D8C49014002200843606520687E
:102EF00080688007800F012805D1206801680800DC
:102F0000C007C00F00E00020002839D16068C02150
:102F10000906884209D060688021C905884204D02A
:102F200060688021090688420CD120680069800011
:102F30008008216808612068006961680143206891
:102F4000016111E020680069800080082168086143
:102F500084480068844901408248016081480068D3
:102F6000616801437F4801602068C0681821884378
:102F70002168C8602068C068A16801432068C160FA
:102F800078480068794901407648016075480068D2
:102F9000616B490601437348016020688068C00086
:102FA00006D420688068802149050143206881603B
:102FB0002068C0686E4901402068C160206902280D
:102FC00001D1042100E000212068C068E2681143BB
:102FD0002022A25C52030A432C21615C4900114368
:102FE000226B0A43A16989031143E269D2030A43B0
:102FF00002432068C260606AFF21C231884207D064
:103000002068C068616AA26A0A4302432068C260FD
:103010002120205C012813D12020205C002807D12A
:103020002068C0688021490201432068C16007E030
:10303000606D202101436165A06D01210143A165FF
:10304000E06B012816D1206800697F4901402068A3
:10305000016120680069216C626C0A43A16C114314
:103060000143206801612068006901210143206853
:10307000016109E020680069C00705D52068006982
:10308000012188432168086120684069072188433D
:103090002168486120684069A16B01432068416153
:1030A0000020A065606D0221884301210143616514
:1030B000002010BD10B50400002021688968490770
:1030C00027D45021615C012901D1022023E0012194
:1030D0005022A154E169012902D0200000F02DF90D
:1030E000C0B2002816D1616D584A0A4080214900BB
:1030F000114361650021A16500215022A1541C21CA
:10310000226811602168896804220A4321688A6064
:1031100000E00220C0B210BDFFFEFFFF10B50400AA
:1031200000205020205C012801D1022018E001205D
:1031300050216054200000F08CF9C0B200280BD15F
:10314000200000F043F9C0B2002805D1616D404A6B
:103150000A4001211143616500215022A154C0B2EF
:1031600010BD000008270140FFFFC3FFFFFFFFFD68
:103170001902FEFFF8B5040000200020606908284D
:1031800001D108250DE02068C068C00708D5606D32
:10319000202101436165002050216054012051E04D
:1031A0000C250F0000F0CAFE0600206800682840C9
:1031B000002813D10020C0438742F6D0002F04D04E
:1031C00000F0BCFE801B8742EFD2606D04210143FA
:1031D0006165002050216054032033E0606D802140
:1031E0008900014361652068C068C0210901014070
:1031F000002920D12020205C00281CD120680068F4
:10320000000718D52068806840070CD42068406803
:103210000C21884321684860606D0D490140012000
:103220000843606507E0606D202101436165A06D82
:1032300001210143A165A069002802D10C20216869
:1032400008600020F2BD000003FCFFFFFEF1FFFF5D
:10325000FFFEFFFF0068006C704738B505000C00EA
:103260005020285C012801D1022064E00120502177
:10327000685428688068400708D5686D202101439C
:103280006965002050216854012054E060684D4970
:10329000884229D02868806A21684903490B014384
:1032A000286881622068400309D54748006880216A
:1032B00009040143444801600A2000F0FBF820683B
:1032C000800306D5404800688021C90301433E4879
:1032D00001602068C0032AD53B480068802149046A
:1032E00001433948016022E02868806A2168490367
:1032F000490B8843296888622068400305D5324815
:1033000000686A490140304801602068800305D5A3
:103310002D480068664901402B4801602068C003C1
:1033200005D5294800686C49014027480160002004
:1033300050216854002032BD000038B50400002040
:10334000206880688007800F012805D12068016807
:103350000800C007C00F00E0002000282ED1206820
:1033600080685E490140002909D0606D1021014349
:103370006165A06D01210143A16501201FE0206866
:1033800080680121014320688160012000F092F8EB
:1033900000F0D4FD050020680068C0070ED400F0DE
:1033A000CDFD401B0B28F6D3606D102101436165F4
:1033B000A06D01210143A165012000E0002032BD84
:1033C00000000000011000000827014038B504008B
:1033D0000020206880688007800F012805D12068C0
:1033E00001680800C007C00F00E0002000282ED0B0
:1033F000206880680521014001291ED1206880686D
:10340000022101432068816003202168086000F0E8
:1034100095FD050020688068C00718D500F08EFD76
:10342000401B0B28F6D3606D102101436165A06D30
:1034300001210143A16501200AE0606D10210143D3
:103440006165A06D01210143A165012000E000201C
:1034500032BD38B50400002020688068400723D5BD
:1034600020688068400709D520688068800705D4F7
:1034700020688068102101432068816000F05EFDB3
:1034800005002068806840070ED500F057FD401BFE
:103490000B28F6D3606D102101436165A06D0121F9
:1034A0000143A165012000E0002032BDFFFF7FFF46
:1034B000FFFFBFFF18B5040009480068094900F084
:1034C00043FD4443009402E00098401E00900098A1
:1034D0000028F9D111BD0000FFFFFFFE170000809A
:1034E0000C00002040420F0010B50400002C01D158
:1034F00001200EE02079002804D100206071200016
:10350000FEF74EF9022020710020E06001202071BA
:10351000002010BD10B5002300234379012B01D1F9
:1035200002201BE0012343710223037103681B681F
:103530000B4C9440A3430C684968214391401943C4
:103540000368196001680968C023934099430268C1
:1035500011600121017100214171002010BD0000A6
:10356000FE0F000010B50400002C01D1012035E051
:10357000A0690028FFD1606F002805D100207021CC
:1035800060542000FEF76AF9242060672068006814
:103590000121884321680860200000F037F90128E4
:1035A00001D101201AE0606A002802D0200000F05A
:1035B000DDFA206840680A490140206841602068BF
:1035C00080682A218843216888602068006801217A
:1035D000014320680160200000F03AFB10BD0000AC
:1035E000FFB7FFFFFEB50400606F20286CD10E000E
:1035F000002E03D01500ADB2002D01D1012064E0F2
:10360000A06880214901884207D12069002804D19F
:103610003000C00701D5012057E07020205C012850
:1036200001D1022051E0019301207021605400205B
:10363000E0672120606700F081FC070050202552E0
:1036400052202552A06880214901884204D1206976
:10365000002801D1002514E03500002611E028786B
:10366000216888626D1C07E0002DF8D13088C00504
:10367000C00D21688862B61C5220205A401E52217B
:1036800060525220205A00280BD0019800903B0035
:1036900000228021200000F011FB0028E4D003204C
:1036A00013E0019800903B0000224021200000F030
:1036B00005FB002801D0032007E0202060670020E0
:1036C00070216054002000E00220FEBDFEB5040021
:1036D0001D00A06F202800D094E00E00002E03D023
:1036E0001700BFB2002F01D101208CE0A06880211B
:1036F0004901884207D12069002804D13000C00761
:1037000001D501207FE07020205C012801D102203A
:1037100079E00120702160540020E0672220A0673A
:1037200000F00CFC0190582027525A202752A06824
:103730008021490188420AD12069002803D13248FA
:103740005C21605224E0FF205C21605220E0A068F0
:1037500000280AD12069002803D1FF205C21605293
:1037600016E07F205C21605212E0A06880214905AC
:1037700088420AD12069002803D17F205C21605251
:1037800006E03F205C21605202E000205C21605294
:1037900002955C20275AA06880214901884204D103
:1037A0002069002801D1002515E03500002612E02F
:1037B0002068406A3900014029706D1C06E0002D28
:1037C000F6D12068406A38403080B61C5A20205A12
:1037D000401E5A2160525A20205A00280BD00298CD
:1037E0000090019B00222021200000F067FA0028B1
:1037F000E5D0032007E02020A0670020702160545E
:10380000002000E00220FEBDFF01000070B50400B2
:1038100010200020002500212268874B9A42FFD00B
:10382000A2682369134366691E43E2693243236831
:103830001B68B24E1E40324323681A6022685268E9
:10384000AF4B1340E2681A4323685A60A2692368A9
:10385000794EB34202D01300226A1A4323689B6850
:10386000A84E1E40324323689A602268A64B9A42B3
:1038700015D1A64A12689207920F002A05D0022A93
:1038800005D006D3032A06D007E0012245E0022234
:1038900043E0042241E008223FE010223DE022689C
:1038A000AE4B9A4216D1994A12680C231340002B52
:1038B00006D0042B08D0082B04D00C2B06D007E030
:1038C00000222AE0022228E0042226E0082224E046
:1038D000102222E02268584B9A421DD18B4A12686E
:1038E000C0231B011340002B0CD08022D200934236
:1038F0000CD080221201934206D0C02212019342C2
:1039000006D007E0002208E0022206E0042204E0DC
:10391000082202E0102200E010222368464EB34243
:103920004AD1D2B2002A06D0022A08D0042A0ED0E8
:10393000082A10D012E0FEF7D4FE01000FE08848FC
:103940000068C00601D5874900E0874907E0FEF717
:1039500083FE010003E08021090200E00125002927
:1039600000D1F3E0606803225043814205D36068D0
:10397000802252015043884201D20125E6E008002E
:10398000002180225200002300F092FB02000B0075
:10399000606840080021801859416268002300F0E7
:1039A000A0FBC0218900411AA84A914202D2216895
:1039B000C860CBE00125C9E0E16980231B02994280
:1039C00065D1D2B2002A08D0012A12D0022A1CD016
:1039D000042A33D0082A3DD046E0FEF782FE0221B9
:1039E0004843616849084018616800F0ADFA80B248
:1039F0003BE0FEF785FE0221484361684908401814
:103A0000616800F0A1FA80B22FE055480068C00656
:103A100008D560684008A7494018616800F094FA2A
:103A200080B207E060684008A3494018616800F070
:103A30008BFA80B219E000BF00480040FEF70CFE90
:103A400002214843616849084018616800F07CFA27
:103A500080B20AE06068400880214902401861682D
:103A600000F072FA80B200E0012501001039AD4A81
:103A700091420AD20200AB49114040084007400F72
:103A8000084380B22168C86060E001255EE0D2B2E0
:103A9000002A08D0012A10D0022A18D0042A37D0D0
:103AA000082A3FD048E0FEF71CFE6168490840182C
:103AB000616800F049FA80B23FE0FEF721FE6168DC
:103AC00049084018616800F03FFA80B235E02448A8
:103AD0000068C00608D5606840082249401861683F
:103AE00000F032FA80B207E0606840081E494018D2
:103AF000616800F029FA80B21FE000BFF369FFEFB0
:103B0000FFCFFFFFFFF4FFFF003801404C100240E1
:103B1000FEF7A2FD616849084018616800F014FAD8
:103B200080B20AE06068400880210902401861689C
:103B300000F00AFA80B200E0012501001039794A4C
:103B4000914202D22168C86000E001250020206671
:103B5000002060662800C0B270BD00000044004034
:103B60000010024000093D000024F40000B52421AB
:103B7000415CC90707D5016849686B4A0A40816AF8
:103B80001143026851602421415C890707D501680F
:103B90004968664A0A40C16A11430268516024219B
:103BA000415C490707D501684968614A0A40016BD1
:103BB0001143026851602421415C090707D501685F
:103BC00049685C4A0A40416B1143026851602421F4
:103BD000415CC90607D501688968574A0A40816B6C
:103BE0001143026891602421415C890607D5016870
:103BF0008968524A0A40C16B1143026891602421CE
:103C0000415C490614D5016849684D4A0A40016C77
:103C1000114302685160016C80225203914207D126
:103C200001684968474A0A40416C11430268516083
:103C30002421415C090607D501684968424A0A40C7
:103C4000816C11430068416000BD000000FD0F0061
:103C500038B504000020E06700F070F90500206826
:103C6000006800070CD5394800902B000022802105
:103C70008903200000F022F8002801D0032018E07A
:103C80002068006840070CD5304800902B000022C7
:103C90008021C903200000F011F8002801D0032082
:103CA00007E0202060672020A0670020702160547A
:103CB000002032BD00127A000048E801F4B504008B
:103CC0000D001F00069E2068C0692840A84201D14F
:103CD000012000E000206946097888421FD10020B9
:103CE000C0438642EFD000F029F9C01B864201D3C1
:103CF000002EE8D120680068154901402068016065
:103D000020688068012188432168886020206067DE
:103D10002020A067002070216054032000E00020D4
:103D2000F2BD0000F0FF0000FFFFFDFFFFFFFEFF00
:103D3000FFFFFBFFFF7FFFFFFFEFFFFFFFDFFFFF47
:103D4000FFFFEFFFFFFF9FFFFFFFF7FFFFFFFF01F9
:103D50005FFEFFFF38B55B006C462370002905D17C
:103D60006946097801230B4369460B70140005006E
:103D700000220121684600F0E9F902002100280034
:103D800000F0E4F932BDF8B504000F0015001E0084
:103D90006019001F00F03EF8010000913300DBB213
:103DA0002A00121F39002000FFF7D4FF009981423A
:103DB00001D1012000E00020F2BD38B50400080068
:103DC0001900049D4006400E20702078D201024365
:103DD0002270601C00F015F82B00DBB205220021D8
:103DE0002000FFF7B7FF0100601D00F00AF831BDA9
:103DF00080B5D2B2009200230022C9B2FFF7DDFFE6
:103E000001BD0A0E02700A00120C42700A0A82708A
:103E1000C170704700B501000020002204E00002DC
:103E2000D2B28B5CC018521CD2B2042AF7DB00BDA0
:103E300010B50C00C0B2602803D100F040FA206039
:103E400004E0C0B2612801D14020206010BD80B5DF
:103E5000020008001900D2B2602A02D100F024FA50
:103E600004E0D2B2612A01D100F029FB01BD80B586
:103E7000C0B2602802D100F0DEF904E0C0B26128CF
:103E800001D100F015FB01BD7047704770477047C6
:103E9000704780B5C0B212282CD050280CD05128C1
:103EA00014D052281CD053282ED054282FD0552857
:103EB00030D0562831D032E0012019490860194825
:103EC0001949086001201949087028E002201449A6
:103ED00008601748144908600120144908701EE062
:103EE00003200F49086013480F49086001200F495B
:103EF000087014E004200A4908600F480A49086065
:103F000001200A4908700AE000F042FD07E000F0D5
:103F100037FD04E000F02CFD01E000F041FD01BDA3
:103F2000F011002057420008EC110020031200207D
:103F30007F420008DD440008D913000801480068EA
:103F4000704700BFF81100200022030A8B420BD2F9
:103F500003098B4219D243088B422ED2411A00D258
:103F60000146524110467047FF2209023FD0120617
:103F70008B4205D3121209028B4201D3121209029D
:103F800003098B4219D300E0090AC3098B4201D30C
:103F9000CB01C01A524183098B4201D38B01C01A55
:103FA000524143098B4201D34B01C01A52410309CC
:103FB0008B4201D30B01C01A5241C3088B4201D37B
:103FC000CB00C01A524183088B4201D38B00C01A28
:103FD000524143088B4201D34B00C01A52418842E0
:103FE00000D3401A5241CFD201461046704708B55F
:103FF00000F0E4FC08BDFEE700B50F480068C0070C
:1040000010D5EFF3108072B62449254A1160254976
:10401000234A116080F3108807480068C00701D563
:10402000012000E0002000BD034800680121014399
:1040300001480160002070470420024070B5040070
:104040000D00160001201948007C012801D1022032
:1040500022E0012015490874134800F0B1FCC0B2F9
:10406000002815D10021114A5161022C01D12E6086
:1040700008E0012C01D12E8004E0002C01D12E702B
:1040800000E00120C0B2002802D0074800F098FCF0
:104090000021064A1174C0B270BD0000EFCDAB899B
:1040A0000C2002400504030250C30000B811002098
:1040B00030B4434351435D18010C0C00130C5C43B6
:1040C0002D1980B2434392B251430024C918644170
:1040D00024040B04090C09195043C018694130BC71
:1040E0007047124224D0994228D970B500251B424E
:1040F00002D00C00002109E0002401264918644187
:10410000944200D3A41A7641F8D33100012601E08D
:10411000764109D2001864416D41A41A9D41F7D23D
:10412000A4185D41B619F5D3300022002B0070BDF4
:104130001B42D8D108B500F0EDFC08BD01D190427A
:10414000D3D202000B0000210020704780B500F0A0
:104150001CF802BD00B5002004E0194904234343C4
:10416000CA50401CFF280CDC020000210829F4DAA8
:10417000D30701D4520802E05308124A5A40491C9E
:10418000F4E701201049087000BD70B504000D006F
:1041900016000D480078002801D1FFF7DBFFF1433E
:1041A000002009E00A0A064B265CC9B271400426C9
:1041B000714359585140401CA842F3D3C84370BDC5
:1041C0001C0000202083B8ED0612002080B5C0B28C
:1041D000052812D02ED307281ED02BD200228021F2
:1041E0000901A020C005FDF735F800228021490112
:1041F000A020C005FDF72EF81CE001228021090156
:10420000A020C005FDF726F8012280214901A02049
:10421000C005FDF71FF80DE0012280210901A02053
:10422000C005FDF717F8002280214901A020C00534
:10423000FDF710F801BD80B58F480068010089B214
:104240008E48FDF717FE8C480068010089B28C4843
:10425000FDF710FE01BD80B500F032FB894800F08B
:104260005AFC0520FFF7B2FFFA239B00042286497F
:104270008648FFF7B7F90720FFF7A8FF01BD80B513
:104280000520FFF7A3FFFA239B00042280497F4803
:10429000FFF7A8F900F016F87749086000F027FB4F
:1042A0000720FFF793FF01BD00B503E0744A525C9D
:1042B0004254491C704A12689142F7DB00BD6E48B7
:1042C00000687047F8B50125002000900027002005
:1042D00000E00025EDB2002D58D0002606E02100B8
:1042E00089B26648FDF7C6FD0025761C694800685E
:1042F0008642EFDA0125009A6749684800F01CFC05
:1043000000240520FFF762FF0A2000F004FC64236C
:10431000062262495D48FFF765F90620FFF756FF60
:10432000642301225E495948FFF7D0F900282CD1B7
:104330005B48007851490855641C594800780D289D
:1043400001D0C72CECD1FA20800000F0E4FB07205C
:10435000FFF73CFF534800F024F80028B9D1524839
:10436000BFB2042179434118504800F057F84E4835
:10437000BFB204217943401800F03DF80028AED0C8
:1043800009370098401C0090A4E7DCE7022179433C
:1043900089B23B4800F05AF8022047433800C0B2C7
:1043A000F2BD00B50178827889180279891882797E
:1043B0008918027A8918827A8918027B8918827B87
:1043C0008918C0225200914210D001788278891851
:1043D0000279891882798918027A8918827A89186B
:1043E000027B8918807B0818002801D1012000E099
:1043F0000020C0B200BD00B5001D0021002204E075
:104400000B0001685940001D521C092AF8DB0068A6
:10441000814201D1012000E0002000BD10B5002242
:104420000FE00A2463430478303C1B19401C0478D5
:104430002C2C02D004780D2CF3D10B60091D401CEC
:10444000521C092A01DA0023F1E710BD10B5002241
:104450000DE0154B042454431B591B120370401CE0
:10446000114B042454431B590370401C521C89B245
:104470008A42EEDB10BD0000F4110020DC0E0020AB
:10448000A40F0020B80B0000040000206C100020D6
:104490000800002000000020C4540008E0110020A3
:1044A00007120020E20E00201C040020E00E002075
:1044B00080B5B4218900C548FDF7DCFC01BD00B51D
:1044C000002105E0C14A89B2525C89B24254491CBC
:1044D00089B2B42292009142F4DB00BD38B50020CD
:1044E0001BE00021E64A80B208234343D152002159
:1044F000E34A80B208234343D21891800021E04A66
:1045000080B208234343D21851800021DC4A80B294
:1045100008234343D218D180401C80B25A28E0DBE4
:1045200000F000FAFA20800000F0F5FA962464000A
:10453000002509E0A4B2200000F0B0F91E342800E4
:10454000C0B200F010F8AD1CADB25A2DF2DB9F489E
:1045500000F03EF9002000F095F9642000F0DBFA4D
:1045600000F0F1F931BD38B504000025A8E0642160
:10457000CF48FEF7FFFDCE48FEF76CFEC049E4B21F
:1045800008226243895A0818BD49E4B208226243EE
:1045900088526421C648FEF7EDFDC548FEF75AFE75
:1045A000B749E4B208226243891849880818B44917
:1045B000E4B208226243891848806421BC48FEF7AF
:1045C000D9FDBB48FEF746FEAD49E4B2082262437E
:1045D000891889880818AA49E4B208226243891810
:1045E00088806421B248FEF7C5FDB148FEF732FE6F
:1045F000A349E4B2082262438918C9880818A0496F
:10460000E4B2082262438918C8806421A848FEF7F2
:10461000B1FDA748FEF71EFE9949E4B208226243A5
:104620008918098908189649E4B208226243891852
:10463000088164219E48FEF79DFD9D48FEF70AFE15
:104640008F49E4B2082262438918498908188C49C5
:10465000E4B2082262438918488164219448FEF735
:1046600089FD9348FEF7F6FD8549E4B208226243CE
:104670008918898908188249E4B208226243891896
:10468000888164218A48FEF775FD8948FEF7E2FDBE
:104690007B49E4B2082262438918C989081878491D
:1046A000E4B2082262438918C88164218048FEF779
:1046B00061FD022000F02FFA7D48FEF72FFD6D1CF2
:1046C000EDB2102D13DA0021794800F055FA0028D8
:1046D00001D0FCF71DFC0A2000F01DFA7448FEF71B
:1046E000E9FC002800D142E7FCF712FCFCE7644833
:1046F000E4B208216143405A80B200096049E4B243
:104700000822624388525E48E4B20821614340189F
:10471000408880B200095A49E4B2082262438918ED
:1047200048805748E4B2082161434018808880B22D
:1047300000095349E4B2082262438918888050482E
:10474000E4B2082161434018C08880B200094C4996
:10475000E4B2082262438918C8804948E4B20821BB
:1047600061434018008980B200094549E4B208223B
:104770006243891808814248E4B208216143401825
:10478000408980B200093E49E4B208226243891898
:1047900048813B48E4B2082161434018808980B2D7
:1047A00000093749E4B208226243891888813448F5
:1047B000E4B2082161434018C08980B20009304941
:1047C000E4B2082254430919C88131BD0C0A002003
:1047D00010B5002100224EE0294B92B20824544328
:1047E0001B5B9BB21B0A89B24354254B92B208242F
:1047F00054431B5B89B244186370214B92B2082466
:1048000054431B195B889BB21B0A89B24418A370DE
:104810001B4B92B2082454431B195B8889B244187D
:10482000E370174B92B2082454431B199B889BB228
:104830001B0A89B244182371114B92B208245443C5
:104840001B199B8889B2441863710D4B92B20824DE
:1048500054431B19DB889BB21B0A89B24418A3710D
:10486000074B92B2082454431B19DB8889B24418C1
:10487000E3710831521C92B25A2AADDB10BD000020
:104880003C07002080B5030000220021094800F009
:1048900002FA0021074800F0D3F901BD80B50649AE
:1048A00048430649FFF750FBFFF7ECFF01BD00004E
:1048B000EC100020D0110020FF0F0000DA0C0000E7
:1048C00080B501203A490870012280214901394808
:1048D000FCF7C0FC0122802109013648FCF7BAFC34
:1048E0000122802189013348FCF7B4FC01BD80B569
:1048F0000022802109012F48FCF7ACFC0022802116
:1049000089012C48FCF7A6FC2B480078002805D12B
:104910000022802149012748FCF79CFC0020244903
:10492000087001BD80B50120234908700122802153
:1049300049012048FCF78EFC01228021C9001D4856
:10494000FCF788FC01BD80B500228021C900194810
:10495000FCF780FC16480078002805D10022802151
:1049600049011448FCF776FC00201349087001BD8A
:1049700080B50022802109010E48FCF76BFC01BDC7
:1049800080B50022802189010A48FCF763FC01BD43
:1049900080B500228021C9000648FCF75BFC01BD00
:1049A00080B50022802149010248FCF753FC01BD7B
:1049B0000912002000040050081200207047FEE792
:1049C00038B50400FFF7BAFA050051480068C0077F
:1049D0000CD50020C0438442F7D0002C04D0FFF750
:1049E000ADFA401B8442F0D2032027E0484800681B
:1049F000800702D502204649086045480068C00586
:104A000017D443480068800513D441480068400526
:104A10000FD43F48006800050BD43D48006880046F
:104A200007D43B480068800303D439480068C003BA
:104A300003D500F005F8012000E0002032BD0000A1
:104A400000B5002032490968C90509D52F494969CF
:104A500002220A432D494A61010080204000084398
:104A60002B490968890509D52849496901220A4362
:104A700026494A61010080208000084324490968D2
:104A8000490509D52149496908220A431F494A6154
:104A900001008020C00008431D490968090509D5A7
:104AA0001A49496904220A4318494A6101008020D1
:104AB0000001084316490968890409D51349496961
:104AC00010220A4311494A610100802080010843F5
:104AD0000F490968890308D50C49496920220A430E
:104AE0000A494A6101002020084309490968C903AD
:104AF00009D50649496940220A4304494A6101002F
:104B00008020400208430249086000BDB81100201F
:104B100018200240704738B50500FFF70FFA04006F
:104B20000020C043854200D06D1CFFF707FA001B30
:104B3000A842FAD331BDFEE70CB418B583B0040027
:104B40000A0006A8029001940020009002AB01A97F
:104B5000084878441E3000F0ADF80021019A117029
:104B6000002801D40198001B04B0019910BC03B0C7
:104B7000084700BFAFC3FFFFF8B5040000250020C1
:104B800000205020205C012801D1022055E00120A6
:104B900050216054206880688007800F012805D16B
:104BA000206801680800C007C00F00E0002000284E
:104BB00039D1606D214901400220084360652068B9
:104BC000C0688607B60F2068C06803218843216843
:104BD000C8602068806880210906014320688160E0
:104BE000FFF7ACF907002068806800280FD5FFF7B1
:104BF000A5F9C01B0B28F6D3606D02218843102154
:104C000001436165002050216054012015E02068B7
:104C1000C06806432068C660606D02218843012198
:104C20000143616504E0606D202101436165012558
:104C30000020502160542800C0B2F2BDFFFEFFFFEB
:104C400000B5002200224279012A01D1022021E090
:104C500001224271022202710268126801238B4014
:104C6000134301680B60016809680422114002685F
:104C7000136838221A40042907D1382A05D101685F
:104C8000496801220A4301684A600121017100213B
:104C90004171002000BD81B00021009100680090AA
:104CA000009808328018009000980360002001B03E
:104CB0007047FEE7F8B594B0070016001D001A987B
:104CC000039102A92B2288540020099001950BE042
:104CD00025290ED00398B8470390002800D1EBE0B7
:104CE0000998401C0990761C31780029F0D1099868
:104CF000E4E000250695079508950022340002E0BF
:104D0000100001220243641C20782028F8D02328B8
:104D10000DD02B2804D02D2806D030280AD0CFE083
:104D2000110002220A43EEE711000422FAE7100004
:104D30000822E7E710001022E4E70B950AE00B9940
:104D4000694B994205DA8B00591849000818303828
:104D50000B90641C2078010030390A29EFD32078A9
:104D60002E2803D00020C0430A9027E0641C23783B
:104D70002A2B0AD101980068019908600168001D7A
:104D8000019B18600A91641C18E02D2B01D1641C52
:104D900000E000230A950CE0002B09D10A99524E3D
:104DA000B14205DA8E0071184900081830380A90AF
:104DB000641C2078010030390A29EDD302A802854D
:104DC000267800BF49A0310000F002FA002801D087
:104DD0003500641C02A82A214554405C682807D18C
:104DE0002078682804D1622002A92A228854641CF1
:104DF0000EA805902378019A02A9380000F0A8F8BF
:104E0000661C002858D10B980699401A0899401A38
:104E10000799401A0D90042002A9098D014210D172
:104E20002020694608700D9800280ADD0D9C01239A
:104E30006A4602A9380000F0A3F900283CD1641E9C
:104E4000F5D1069B0EAA02A9380000F099F90028B6
:104E500032D1302069460870089C002C09DD0123FE
:104E60006A4602A9380000F08BF9002824D1641E9C
:104E7000F5D1079B049A02A9380000F081F90028B7
:104E80001AD1042002A9098D014200D12CE720206B
:104E9000694608700D98002800DC25E70D9C019DEF
:104EA00001236A4602A9380000F06AF9002803D1FC
:104EB000641E00D10AE7F3E70020C04315B0F0BD3F
:104EC0002A2800D039E70198016801600868091DA7
:104ED000019B19600B90002804D541420B911100F1
:104EE00004220A43641C3AE7CBCCCC0C686C747A7D
:104EF0004C000000622810D0682801D06C2819E00E
:104F0000002A0A680A60106803D0121D0A6000B205
:104F100017E0121D0A6080B217E0002A0A680A60D2
:104F2000106803D0121D0A6040B20AE0121D0A6028
:104F3000C0B20AE0002A0A680A60106803D0121D95
:104F40000A60C1177047121D0A60002170470000F7
:104F500070B50C0011001E00E568252E00D185E01B
:104F6000582E37D0632E0ED0642E16D0692E14D052
:104F70006F2E2FD0702E4AD0732E54D0752E29D07C
:104F8000782E27D078E02069421C22610A680A60E6
:104F90001368121D0A602B5478E001222A20205C3D
:104FA000FFF7A8FF2060002804D52069411C21617B
:104FB0002D210DE0208D810704D52069411C216140
:104FC0002B2105E0C0071DD52069411C216120214E
:104FD000295417E000222A20205CFFF78BFF206075
:104FE0002820205C00070DD5206800280AD020204A
:104FF0003043782806D1206930212954401C411CB7
:1050000021612E5420692818A060310007E008684B
:1050100008600268001D08602260A56078212000F9
:1050200000F036F832E0086808600568001D086086
:10503000A560002D07D10024E44300BF5DA000F06F
:10504000D3F8201A70BD266A002E03D5280000F080
:10505000EFF809E032000021280000F0F1F8002804
:1050600001D0401B00E0300060610FE02069411C6E
:1050700021612521295409E02169481C206125224C
:105080006A54310002D0411C21612E54002070BDB1
:10509000F0B583B00A00C4686F2901D1082506E085
:1050A00020231343782B01D00A2500E01025182770
:1050B00003681E00642901D0692903D1002B01D5A2
:1050C00071420E00002E1FD1016A00291CD1082D4B
:1050D00044D12821415C090740D517273021E175CB
:1050E0003CE0002A0ED52822825C14231340102BAA
:1050F00008D1426A0369D21A8369D21A511A012966
:1051000000DB816103B0F0BD0290684602707F1E33
:10511000019730002900FEF717FF3031C9B23A2954
:1051200003DB6846007851380918E1553000290042
:10513000FEF70AFF060004D002988068E119884251
:10514000E5D30298082D09D12821415C090705D52E
:10515000E15D302902D07F1E3021E1551821C91BA5
:105160004161E2198260026A9142BADA511A8161A0
:10517000018D024A0A400285C4E70000EFFF0000EB
:10518000F8B507000020002B12D00E0014001D00FF
:1051900021787068B8477060002807D0F069401C1B
:1051A000F0610020641C6D1E02D0F1E70020C043B6
:1051B000F2BD00007072696E74665F733A206261BE
:1051C0006420257320617267756D656E7400000040
:1051D00000BFC9B200E0401C02788A4202D0002A17
:1051E000F9D100207047FEE780B5002801D100BF4B
:1051F00007A006490B68002B03D022220021984704
:1052000001E000F029F8222002BD0000FC1100207E
:10521000636F6E73747261696E742068616E646C22
:1052200065723A20626164206D6573736167650021
:10523000010000E0491C0A78002AFBD1081A7047D7
:10524000C9B201E0401C521E002A03D003788B42F1
:10525000F8D170470020704780B5012000F002F8B7
:1052600001BDFEE780B500F007F8024A11001820E2
:10527000ABBEFBE72600020010B500F013F80200F9
:105280000023DB4300241068984203D01100022061
:10529000ABBE14605068984203D0111D0220ABBE13
:1052A000546010BD00487047100000201648006888
:1052B00080214900014314480160144800681449E2
:1052C00001401248016010480068124901400E4830
:1052D000016011480068012188430F4908600A48AD
:1052E00000680E49014008480160084800680C4900
:1052F00001400648016000200A490860802000053E
:105300000949086070470000001002400C1002407C
:105310000C40FF88F6FFF6FE08100240FFFFFBFF7F
:10532000FFFF02FF1010024008ED00E070B40123FF
:10533000002413E00168001D194202D04D466D1E85
:1053400049190C60091D121F042AFAD20D00960794
:1053500001D50C80AD1C1A4000D02C700268001DD5
:10536000002AE7D170BC704780B500F015F801BD88
:1053700080B5084800688069E021C9000140002923
:1053800003D00448FAF749FF02E00248FAF73AFF6F
:1053900001BD00004811002002480068401C01497E
:1053A00008607047F811002030B401220168001D28
:1053B00000290FD00368C31844680830144202D093
:1053C0004D466D1E64191D6825601B1D241D091F97
:1053D000ECD0F8E730BC704710B507497944183174
:1053E000064C7C44163404E0081D0A688918884776
:1053F0000100A142F8D110BD080000002800000003
:105400002DFFFFFFF01100001C0000200000000035
:1054100099FFFFFF1C000000440000000000002076
:105420000000000000F00DF8002801D0FFF7D4FFC5
:1054300000BF00BF002000BF00BFFBF7A5FC00F0CD
:1054400002F80120704780B500F002F801BDFEE7C8
:1054500007463846FFF706FFFBE7FEE703000000BC
:10546000584D333B584D343B00002000FFFFFFFFF9
:10547000FFFFFFFF45000000FEE700000000000006
:1054800000000000010203040607080901488047E4
:1054900001480047AD520008A9540008030406085B
:1054A0000C1018203000000000BF00BF00BF00BF7C
:1054B000FFF7B8FF0000000000000000000000003F
:1054C000000000005855362C25640D000000000037
:1054D00001020304FEE7FEE7FEE7FEE7FEE7FEE764
:1054E000FEE7FEE7FEE7FEE7FEE7FEE7FEE7FEE794
:0C54F000FEE7FEE7FEE7FEE7FEE7FEE752
:04000005080054A9F2
:00000001FF
