:020000040800F2
:10000000E8100020DD500008031F0008274B0008FF
:1000100000000000000000000000000000000000E0
:10002000000000000000000000000000B74D0008C4
:100030000000000000000000BB4D0008FD4E00085D
:10004000FD4F00082B50000837500008CB50000827
:100050002551000827510008295100082B5100089C
:100060002D5100082F51000831510008335100086C
:1000700035510008375100080000000039510008D0
:10008000000000003B5100080000000000000000DC
:100090003D510008000000003F510008054F0008D6
:1000A00041510008435100084551000847510008DC
:1000B000495100084B5100084D5100084F510008AC
:1000C00010B50400002C01D101205EE04120205C2D
:1000D000002805D1002040216054200000F011FECE
:1000E0002420412160542068006801218843216850
:1000F00008606068254901402068016120688068C7
:100100002349014020688160E068012806D1A06889
:100110008021090201432068816005E0A0688421F4
:100120000902014320688160E068022803D1802031
:100130000001216848602068406816490143206832
:1001400041602068C068124901402068C160206990
:1001500061690143A069000208432168C860E06941
:10016000216A014320680160206800680121014381
:10017000206801600020606420204121605400203C
:100180002063002042216054002010BDFFFFFFF0DB
:10019000FF7FFFFF0080000210B54123C35C202BCE
:1001A00026D14023C35C012B01D1022021E0012391
:1001B0004024035521234124035520234224035581
:1001C0000023436403685B680B4C1C4003685C605D
:1001D00041624285418D01850849C16208494163F8
:1001E000002140228154072100F0C2FC002000E0E1
:1001F000022010BD00000000FF7FFFFF0000FFFF96
:100200008302000880B50168896902681268436B3F
:10021000002B01D0436B984701BD10B50168896977
:1002200002681268CB0509D5130607D5436C012473
:100230001C43446480235B000468E3614B0509D5DB
:10024000130607D5436C08241C4344648023DB0059
:100250000468E361890509D5110607D5416C0222BE
:100260000A434264802189000268D161416C0B22FB
:100270000A40002A01D000F0B3FB10BD4121405CD0
:10028000704770B50400E06A4023E35C012B01D1A4
:10029000022087E015000E0001214022A154F10642
:1002A00038D5E90636D5618D002921D14121615C1F
:1002B000282908D180218904884204D131002000F6
:1002C00000F056FB62E04121615C29290CD13649DE
:1002D000884209D010202168C861200000F001FC8C
:1002E000200000F021FA51E010202168C8614DE0A3
:1002F00010212268D161616C04220A4362640028E3
:1003000003D080214904884240D1616C200000F074
:1003100067FB3BE0710712D5690710D5B00606D41C
:10032000606A411C61622168496A01702EE0E06ADE
:100330001D4988422AD0200000F0F6F926E0310756
:1003400006D5290704D53100200000F045F91DE04D
:10035000B1071BD5A90719D5618D00290DD0606A99
:10036000007821688862606A401C6062608D401E6F
:100370006085208D401E208508E080214904884248
:1003800001D0002802D1200000F0CEF9B00605D53A
:10039000A80603D53100200000F05EFA00204021BD
:1003A0006054002070BD00000000FFFF1CB5040079
:1003B0004020205C012801D1022090E00120402350
:1003C000E054C80610D5D0060ED510202168C861AB
:1003D000606C0421014361641221200000F0C8FB1D
:1003E000200000F07EFB76E008064DD550064BD588
:1003F000206800684021884321680860608D0028DB
:1004000035D0206840688105890D608DFF2804D9AA
:10041000FF20208580235B0409E0608D2085E06A51
:100420006C4A904201D0E36A01E080239B040020E3
:100430000090228DD2B289B2200000F084FB608D42
:10044000218D401A60854120205C222807D1206838
:100450000068802109020143206801603BE02068B8
:1004600000688021C90101432068016033E02068F1
:100470004068800103D4200000F029F92BE04021DE
:10048000200000F0ADFA26E048061DD550061BD529
:10049000608D002813D12068406880011BD4E06A79
:1004A0004C49884207D1206840688021C901014336
:1004B000206841600FE0200000F009F90BE04021C6
:1004C000200000F08DFA06E0880604D5900602D5DB
:1004D000200000F056F9002040216054002016BD95
:1004E00070B50400E06A00234025655D012D01D14F
:1004F00002206DE001254026A555CD0655D5D5062F
:1005000053D5C0252D021540002D4AD0E56B002D96
:1005100007D0150405D5E56B2D686D68002D00D159
:100520000123A56B002D07D0520405D5A26B1268DC
:100530005268002A00D10123012B20D14122A25C64
:10054000282A07D180229204904203D1200000F093
:100550000FFA39E04121615C29290CD11D498842FB
:1005600009D010202168C861200000F0BAFA2000EC
:1005700000F0DAF828E010202168C86124E010219A
:100580002268D161616C04220A436264002803D0AE
:1005900080214904884217D1616C200000F020FAC4
:1005A00012E010202168C8610EE0080705D5100789
:1005B00003D5200000F010F806E0880604D5900668
:1005C00002D5200000F048F90020402160540020AE
:1005D00070BD00000000FFFF70B504002068806956
:1005E000000C0100C907C90F20688069000CFE22B9
:1005F0000240206880688005800D2068C368FE2066
:10060000184092B2C9B2200000F045FC4120205CA5
:1006100028210140282953D120688069000C060058
:10062000F607F60F20688069000CFE25054020685B
:1006300080688205920D2068C168FE200840E1684C
:1006400002292ED1ADB20621294013009BB2DB094D
:1006500006251D40A94214D1A06C401CA064A06CCA
:10066000022833D10020A06408202168C86100203E
:100670004021605492B23100C9B2200000F00BFC5E
:1006800024E005000421200000F0C2FA00204021EF
:1006900060542A0092B23100C9B2200000F0FBFB86
:1006A00014E00421200000F0B3FA0020402160543F
:1006B0002A0092B23100C9B2200000F0ECFB05E044
:1006C00008202168C86100204021605470BD10B529
:1006D00004000020422160544120205C212811D1D7
:1006E00020204121605411202063002060630121FB
:1006F000200000F08DFA002040216054200000F01E
:1007000049FC10E020204121605412202063002089
:1007100060630221200000F07BFA00204021605439
:10072000200000F038FC10BD10B50400002042216C
:1007300060544120205C29280FD128204121605499
:10074000212020630121200000F062FA00204021D6
:100750006054200000F020FC12E04120205C2A2898
:100760000ED1282041216054222020630221200044
:1007700000F04EFA002040216054200000F00DFCF3
:1007800010BD10B5040020202268D06120684068A8
:10079000914A02402068426000202063002060638C
:1007A0008E48E062C80606D510202168C861606CDA
:1007B000042101436164200000F093F9032120002B
:1007C00000F026FA606C4121615C602901D00028AC
:1007D00004D0616C200000F003F93CE04120205C73
:1007E00021281AD12020412160544220205C402839
:1007F00009D1002042216054002040216054200093
:1008000000F0CCFB27E00020422160540020402172
:100810006054200000F0BEFB1DE04120205C222837
:1008200019D12020412160544220205C402809D168
:10083000002042216054002040216054200000F03C
:10084000AEFB08E0002042216054002040216054AB
:10085000200000F0A0FB10BD70B504000E00206861
:10086000056820202168C8610721200000F0D0F928
:1008700020684068802109020143206841602068A7
:1008800040685549014020684160200000F029F986
:10089000680407D5A06B00280DD0A06B00684068E5
:1008A000608508E0280406D5E06B002803D0E06BE3
:1008B000006840686085700711D504208643206871
:1008C000406A616A0870606A401C6062208D00287E
:1008D00005D0208D401E2085608D401E6085608D76
:1008E000002803D0606C0421014361640020206370
:1008F00000204221605400206063606C00280CD00E
:10090000616C200000F06CF84120205C28282ED17A
:100910003100200000F02CF829E0E06A7A49884292
:100920000ED02000FFF700FF7748E0622020412131
:100930006054002040216054200000F031FB16E09C
:100940004120205C222809D1202041216054002030
:1009500040216054200000F020FB08E020204121CD
:100960006054002040216054200000F015FB70BD51
:1009700010B504006448E06200202063202041227A
:10098000A05400204222A05400206063480715D5DF
:10099000042081432068406A616A0870606A401CD4
:1009A0006062208D002809D0208D401E2085608D3A
:1009B000401E6085606C04210143616407212000B2
:1009C00000F026F910202168C86100204021605401
:1009D000200000F0E5FA10BD00E800FE0000FFFF77
:1009E00010B504004120205C00224223E254464A14
:1009F000E26200226285626C11436164C0B2282801
:100A000005D0C0B2292802D0C0B22A280BD10321B8
:100A1000200000F0FDF828204121605400202063D0
:100A20003A4860630EE00721200000F0F1F8412011
:100A3000205C602802D020204121605400202063E7
:100A40000020606320680068400418D520680068B2
:100A50002F49014020680160A06B002840D02D483C
:100A6000A16B8863002040216054A06B00F09EFAC7
:100A7000002835D0A06BA16B896B884730E02068D7
:100A80000068000418D520680068234901402068E8
:100A90000160E06B002823D01E48E16B88630020D2
:100AA00040216054E06B00F081FA002818D0E06B20
:100AB000E16B896B884713E04120205C602809D1F5
:100AC000202041216054002040216054200000F08B
:100AD00099FA05E0002040216054200000F093FACC
:100AE00010BD00B501688969890702D50021026837
:100AF000916201688969C90705D401688969012281
:100B00000A430068826100BD0000FFFF8302000805
:100B1000FFBFFFFF1D0B0008FF7FFFFF80B5806A4E
:100B20000021826B91630021C26B91634121415C82
:100B3000602905D120214122815400F063FA01E0AF
:100B400000F061FA01BDF0B4049C05686D68660DA3
:100B50002C4F3743BD4389B28905890D2943D2B251
:100B600012040A4313431C4300684460F0BC7047FE
:100B700010B50022436B244CA34203D0436B234C9B
:100B8000A3421ED189B24B0702D51300B8221A43E3
:100B900089B211230B40112B02D1130090221A436A
:100BA00089B212230B40122B02D1130020221A43C8
:100BB00089B212230B40122B1DD1110040220A438F
:100BC00019E089B24B0702D51300B8221A4389B243
:100BD000CB0702D51300F2221A4389B28B0702D544
:100BE0001300F4221A4389B212230B40122B02D1B4
:100BF000110020220A43016809680A430068026064
:100C000010BD0000FF63FF03AD030008E10400080E
:100C100010B5002289B2CB070BD5130042221A432C
:100C20004123C35C28241C40282C02D01300B0228E
:100C30001A4389B28B070BD5130044221A43412370
:100C4000C35C28241C40282C02D01300B0221A4375
:100C500089B24B0702D51300B8221A4389B2112377
:100C60000B40112B02D1130090221A4389B2122398
:100C70000B40122B02D1130020221A4389B21223F7
:100C80000B40122B02D1110040220A43016809686F
:100C900091430068016010BD80B535483549086052
:100CA0003548344948608A203249886001203149FA
:100CB000C860802000022F49086100202D4948614A
:100CC00000202C49886100202A49C8610020294958
:100CD00008622848FFF7F4F9002801D000F058F91D
:100CE0000021244800F090F9002801D000F050F9CC
:100CF0000021204800F0BAF9002801D000F048F99E
:100D000001BD10B586B0040001A8142100F0FAF965
:100D100020681749884228D11848006802210143F9
:100D200016480160154800680221084000900098AC
:100D3000C020019012200290012003900320049013
:100D40000120059001A90E4800F0DEF90D48006869
:100D50008021890301430B480160012200211720F3
:100D600000F02BFB172000F02DFB06B010BD00009B
:100D700000540040A80B0020140E00002C1002406C
:100D8000000400503810024080B500F031FB00F044
:100D900087F800F043FB00F071FB00F0FDFB00F072
:100DA0000BFDFFF779FF00F05BFD10E0654802786E
:100DB00065480168654800F0B7FD654908706148FD
:100DC00002786149614800F0DDFD6249087000F079
:100DD0002DF85D48026892B25C495F48FFF7DCF984
:100DE000002801D000F0D4F85B48FFF747FA20282C
:100DF000FAD15549554801F074F858480078002850
:100E0000D4D05148016889B2504801F05FF8544885
:100E100000780028DBD1534800780028D7D052480A
:100E20000068804700204F490870D0E780B54F48E0
:100E30000078002803D14E48007800280FD0012008
:100E40004C49087001F06EF84B4801F07BF9022024
:100E50004849087001F074F8474801F073F94748B1
:100E60000078002803D14248007800280FD00320E2
:100E70004049087001F0A8F93F4801F063F90420E7
:100E80003C49087001F0B1F93B4801F05BF93CA026
:100E900001F0E6F9CBE7314801703A48028070472B
:100EA00080B59CB00EA8382100F02CF968461421BA
:100EB00000F028F905A8242100F024F93248006840
:100EC000324901408020000108432F4908601A2060
:100ED0000E900920119010201290012013900120F3
:100EE000159000201690C020000217900020189046
:100EF0000EA801F0C9F9002801D000F049F80F2030
:100F0000009000200190002002900020039000201B
:100F100004900021684601F0A5FC002801D000F0F3
:100F200037F80920059002200890802080010B905E
:100F300005A801F0F9FD002801D000F029F81DB046
:100F400000BD000018000020C80C00203C07002055
:100F5000E00C0020E10C0020A80B0020DE0C00209B
:100F6000740C0020DF0C0020CC0C0020E30C0020CF
:100F700019000020E20C0020881300001A00002055
:100F800057555400DC0C002000700040FFE7FFFFC5
:100F900000B5FEE77047704770477047704770476D
:100FA00070470268531C03601170704710B500242D
:100FB0002521415C022903D00421C16301241EE0E4
:100FC000016809680E22914302681160016809688E
:100FD000012291430268116001214422825C1C239A
:100FE00013409940026C5160012125228154002157
:100FF00024228154816B002901D0816B8847200015
:10100000C0B210BD7047704700B54122825C202AF3
:101010002AD14022825C012A01D1022025E001224E
:101020004023C25424224123C2540268126801237F
:101030009A4303681A6002681268244B13400268DE
:101040001360026812681143026811600168096840
:1010500001220A4301680A602021412281540021B3
:1010600040228154002000E0022000BD00B5412252
:10107000825C202A27D14022825C012A01D10220F1
:1010800022E001224023C25424224123C254026898
:10109000126801239A4303681A60026812680C4BB5
:1010A00013400902194302681160016809680122AE
:1010B0000A4301680A602021412281540021402214
:1010C0008154002000E0022000BD0000FFEFFFFF80
:1010D000FFF0FFFF130030B414001500103902D3E5
:1010E00010393CC0FCD2490700D30CC000D504C065
:1010F000890002D30280801C002900D5027030BC18
:10110000704700000022E5E7F0B503000A00002464
:101110000020002037E0062103E068498B42FAD125
:1011200005212600B607B60F04277E43B1400143D0
:101130006348A60804277E43815162480068A8439B
:101140005168C90300D528435E4908605E480068BD
:10115000A8435168890300D528435B4908605B4870
:101160000068A8435168C90200D528435749086060
:1011700057480068A8435168890201D505432800F3
:1011800053490860641C1068E040002800D194E0D6
:1011900010680125A5400540002DF3D050680228B5
:1011A00002D05068122819D1E008042148431818C9
:1011B000006A0F2126007607760F04277E43B14090
:1011C00088431169260077077F0F04267743B940CB
:1011D0000143E00804267043181801625068012892
:1011E00008D05068022805D05068112802D05068F5
:1011F000122818D198680321260002277E43B140A7
:101200008843D168260002277E43B140014399609C
:1012100058680121A140884356683100C906C90FAA
:10122000A1400143596018680321260002277E432C
:10123000B140884311798907890F260002277E4330
:10124000B14001431960D8680321260002277E437C
:10125000B14088439168260002277E43B140014394
:10126000D9605068C0008DD51F4800680121014336
:101270001D4801601248A1080426714340580F21FF
:101280002600B607B60F04277E43B1408843A0214D
:10129000C9058B4201D1002143E714498B4201D19A
:1012A00001213EE712498B4201D1022139E7114960
:1012B0008B4200D031E7032133E7F0BD001C005022
:1012C00008000140000401400404014008040140FA
:1012D0000C04014000B5D2B2002A02D089B281616B
:1012E00001E089B2816200BD341002400004005068
:1012F00000080050000C00500121C006C00E8140C3
:10130000354801607047F0B540B2002821D5334B15
:1013100040B20207120F083A9208042462432F4C8D
:1013200040B205072D0F083DAD08042675436459EA
:10133000FF258607B60F08277E43B540AC438901D9
:10134000C9B28007800F0825684381402143995026
:101350001AE0234A40B2830804246343D258FF238F
:101360008407A40F08256C43A3409A438901C9B29E
:1013700083079B0F0824634399401143184A40B2E6
:101380008008042358431150F0BD80B5411E8022CF
:101390005204914201D301200EE0401E1149086021
:1013A00003210020C043FFF7AEFF00200E49086074
:1013B00007200E490860002002BD80B540B2FFF74B
:1013C000A2FF01BD80B540B2FFF796FF01BD80B519
:1013D000FFF7DBFF02BD000000E100E01CED00E0D4
:1013E00000E400E014E000E018E000E010E000E0BD
:1013F00010B50024084800684021014306480160F8
:10140000002001F0A5FC002801D0012401E001F03A
:10141000B9FC2000C0B210BD0020024080B588B0E9
:10142000684601000831684601F0F4FC002801D04C
:10143000012000E00020C0B2002804D068460FC898
:1014400001F0B0FD06E004A801F0D0FD04A80FC82B
:1014500001F0A8FD09B000BD80B588B004A801F076
:10146000B3FD684604A9102201F0DAFE68460100C7
:101470000831684601F024FD09B000BD80B586B092
:1014800068461421FFF73EFE3E48006804210143F0
:101490003C4801603B4800680421084005900598DD
:1014A00038480068802101433648016035480068AB
:1014B00080210840059005983248006801210143C9
:1014C000304801602F4800680100C907C90F059125
:1014D00005982C480068022101432A4801602948E8
:1014E000006802210840059005980022F02189013A
:1014F0002548FFF7EFFEE020000200900320019056
:101500000020029069462148FFF7FEFD032000906D
:10151000032001900020029069461D48FFF7F4FD6A
:101520001C48009003200190002002906946164854
:10153000FFF7EAFDE020400100900120019000202B
:1015400002900020039069460F48FFF7DDFD8020E0
:101550008001009011200190002002900020039053
:1015600069460948FFF7D0FD89200002009003205A
:101570000190002002906946A020C005FFF7C4FD3D
:1015800007B000BD2C1002400004005000080050BD
:10159000001C00503CC30000E0B5754803C86A4613
:1015A00003C2083A73487449086000207249C8634E
:1015B000C02000067049486000206F498860002004
:1015C0006D49886301206C49086100206A49C86040
:1015D00001206A49087000206949087000206649A6
:1015E0008862FF20C2306449486200206549087063
:1015F00004206149486100205F49086301205E4979
:10160000886101205C49486301205B49C8615A48F0
:1016100001F034FE002801D0FFF7BAFC0120009051
:101620008020400101906946534802F004F80028E8
:1016300001D0FFF7ADFC5448009069464E4801F0D8
:10164000FAFF002801D0FFF7A3FC5048009069463C
:10165000494801F0F0FF002801D0FFF799FC4C4801
:1016600000906946444801F0E6FF002801D0FFF7EA
:101670008FFC4848009069463F4801F0DCFF002895
:1016800001D0FFF785FC4448009069463A4801F0D4
:10169000D2FF002801D0FFF77BFC4048009069464C
:1016A000354801F0C8FF002801D0FFF771FC3C4825
:1016B00000906946304801F0BEFF002801D0FFF7D6
:1016C00067FC3848009069462B4801F0B4FF0028B9
:1016D00001D0FFF75DFC344800906946264801F0D0
:1016E000AAFF002801D0FFF753FC07BD10B586B054
:1016F000040001A81421FFF705FD20681D49884258
:1017000034D12A48006880218900014327480160BC
:1017100027480068012101432548016024480068EA
:101720000100C907C90F00910098214800680221F3
:1017300001431F4801601E480068022108400090D4
:101740000098EF200190032002900020039001A94F
:10175000A020C005FFF7D8FC0320019003200290D1
:101760000020039001A91348FFF7CEFC06B010BD7E
:1017700004510008002401404C0B00206C0B002099
:101780006D0B0020780B002002000004040000080C
:101790000800000C20000014400000188000001C0D
:1017A0000001002000020024000002443410024026
:1017B0002C10024000040050E0B5244803C86A46DB
:1017C00003C2083A224823490860224802F07AF806
:1017D000002801D0FFF7DCFB0020009000200190E2
:1017E000002269461B4802F083F8002801D0FFF769
:1017F000CFFB07BD10B586B0040001A81421FFF788
:1018000081FC2068124988421ED11348006880215B
:101810008905014310480160104800680121014317
:101820000E4801600D4800680100C907C90F00910A
:10183000009810200190032002900020039001A93D
:10184000A020C005FFF760FC06B010BD0C510008D9
:1018500000740040B00C0020381002402C100240F0
:1018600080B52D482D490860E12040022B49486091
:1018700000202A49886000202849C86000202749A4
:1018800008610C2025494861002024498861002016
:101890002249C86100202149086200201F4948628E
:1018A0000023002200211D4802F04AF8002801D040
:1018B000FFF76EFB01BD10B586B0040001A814212E
:1018C000FFF720FC20681449884223D1144800689F
:1018D0008021C901014312480160124800680121BA
:1018E0000143104801600F4800680100C907C90F93
:1018F00000910098B0204001019002200290002049
:101900000390032004900420059001A9A020C005A5
:10191000FFF7FAFB06B010BD00380140CC0A0020EA
:10192000341002402C1002407FB504000D00160058
:10193000C8484078002812D1684601F057FB684635
:101940000FC801F02FFB3300DBB22A000121200079
:1019500002F05DF8002809D10120C04310E0BD4825
:1019600080780028EFD00020C04309E00120B94969
:1019700088702900200000F031F80021B54A9170EC
:1019800004B070BD7FB505000C001600B14840786A
:10199000002814D1684601F029FB68460FC801F001
:1019A00001FB0120AB4988703200D2B2210028002F
:1019B00000F07CF90021A74A917004B070BDA548E1
:1019C00080780028EDD03200D2B20521280002F044
:1019D00053F8092020600020C043EEE738B50A0024
:1019E00001784C06640E01780D00EDB2ED09E4B209
:1019F000012C0FD11100891FFF23FC33994202D320
:101A00000320C04315E0521F2900C9B2401C00F05A
:101A100011F80EE0092A02D00220C04309E0401C60
:101A200002F03CF802002900C9B22000C0B200F068
:101A30002FF832BD38B5874B1B78012B02D004201C
:101A4000C04324E00C002100824B9B79C9B299422B
:101A500002D10520C0431AE015007E4989697D4AFC
:101A6000D2695219914202D20320C0430FE0794952
:101A7000CB692A0001007748C07902F04BF875481D
:101A8000C06940197349C86172488471002032BD31
:101A900080B5C0B230230340DBB2002B06D0102B40
:101AA00009D0202B0CD0302B0ED012E0C9B2C0B21E
:101AB00000F012F80FE0C9B2C0B200F07EF80AE000
:101AC000C0B200F0A0F806E0C9B2C0B200F0C4F89D
:101AD00001E00620C04302BD10B50C00C0B20028D2
:101AE00004D0022806D0032840D063E000F0CAF9F1
:101AF000002061E05748C0695649096A40185549B5
:101B00008969884202D30620C0432EE051484079BB
:101B1000E4B2844202D00620C04326E04D4800785B
:101B200003280DD100204B49C8614A484079012162
:101B3000414048484171042046490870002014E0A3
:101B40004448007804280ED14248006A4149C969D6
:101B500008184049C8613F484079012141403D484B
:101B60004171002001E00620C04325E0394800789B
:101B7000032806D037480078042802D00620C04346
:101B800017E0200033490979C0B2884202D006200C
:101B9000C0430EE02F48C07901F0ADFF2200D2B261
:101BA0002C48C179C74801F0A7FA002029490870DC
:101BB000002001E00620C04310BD38B504000D0030
:101BC00000F060F923480571224885712148C471ED
:101BD00000202049886100201E49C86100201D495D
:101BE00008622A00D2B22100C9B2B64801F05AFAFE
:101BF000002803D002201749087002E0012015498F
:101C00000870002032BD1CB5040000F03BF9210033
:101C1000C9B2AC4801F022FA0E4908710D480079AA
:101C20000C4948710B48C47100200A49C861002062
:101C3000084908620020009069462000C0B201F007
:101C40003BFF009803498861032002490870002087
:101C500016BD0000740C002070B504000D001600C5
:101C600000F010F9104805710F4885710E48C471D5
:101C70000D48866100200C49C8612A00D2B22100BB
:101C8000C9B2904801F00EFA002803D0022006499C
:101C9000087007E001200449087031002000C0B23C
:101CA00001F037FF002070BD740C002070B50500F6
:101CB0000C00160084480078002806D002281CD0AA
:101CC0001BD3042812D00AD31EE03200D2B2002166
:101CD000280001F0D1FE09202060002020E0320021
:101CE000D2B22100280000F01CF819E03200D2B274
:101CF0002100280000F024F812E03200D2B22100C6
:101D0000280000F061F80BE000F0BCF83200D2B21D
:101D10000021280001F0B0FE092020600720C04308
:101D200070BD1CB50C0068498B69D2B2009266493F
:101D30000A79042101F085FE09202060002016BDEB
:101D4000F8B505000F0016005F48C0695E49896953
:101D500088420CD300F096F83200D2B2002128005D
:101D600001F08AFE092038600720C0432BE0FF24E1
:101D7000FC34554880695449C969401AFF21FC3137
:101D8000884200D20400504804624F484079C001A4
:101D90000121014329704C48C3692200691C4A484B
:101DA000C07901F098FE3300DBB22200521C002102
:101DB000280001F013FE01002819401C01F065FE07
:101DC000641D3C600020F2BD7CB50D003E490978E1
:101DD00002290ED1D2B2009200233B490A79032195
:101DE00001F02FFE092028600020374908700020EC
:101DF00047E000243449C969334B9B69994235D384
:101E0000D2B20092002330490A79032101F019FE71
:101E10000920286000202C4908702B48C5792A48E1
:101E200006792948C07930210140C9B2102902D071
:101E300030290CD017E02448C07901F06EFE320042
:101E4000D2B22900C9B21F4801F056F918E01E4865
:101E5000C07901F060FE3200D2B22900C9B219483F
:101E600001F04AF90CE00724E44309E0D2B2009201
:101E7000002315498A79022101F0E3FD0920286039
:101E8000200076BD80B510480078401E03D0801E2B
:101E900001280CD911E00C48C079302101401029EB
:101EA00004D002210848C07901F036FE05E0022185
:101EB0000548C07901F02CFEFFE7002002490870B8
:101EC00001BD00007C0C0020740C002000B502E075
:101ED00000220270401C0A00511E92B2002AF7D163
:101EE00000BD00B5002207E00378002B02D01300EC
:101EF0005B1C0B60401C521C80239B009A42F3DB4E
:101F000000BDFEE780B581480068010089B28048C5
:101F1000FFF7DCFF7D480068010089B27D48FFF7CC
:101F2000D5FF01BD80B500F01DF97B4800F00AF92E
:101F3000FA239B0004227949794801F043FE01BD50
:101F400080B5FA239B0004227649754801F03AFED9
:101F500000F013F86D49086000F01BF901BD00B5F1
:101F600003E06C4A525C4254491C684A1268914230
:101F7000F7DB00BD654800687047F8B50125002013
:101F800000900027002000E00025EDB2002D48D091
:101F9000002606E0210089B25D48FFF797FF002583
:101FA000761C614800688642EFDA0125009A5F4995
:101FB0005F4802F0BFF90024642306225C495848B8
:101FC00001F000FE642301225A49554801F06EFEDB
:101FD000002825D1574800784D490855641C5548BC
:101FE00000780D2801D0C72CECD1534800F024F81C
:101FF0000028C9D15148BFB2042179434118504843
:1020000000F057F84D48BFB204217943401800F062
:102010003DF80028BED009370098401C0090B4E776
:10202000E3E70221794389B23A4800F05AF80220E6
:1020300047433800C0B2F2BD00B5017882788918F4
:102040000279891882798918027A8918827A89181E
:10205000027B8918827B8918C0225200914210D0DD
:102060000178827889180279891882798918027A28
:102070008918827A8918027B8918807B08180028C1
:1020800001D1012000E00020C0B200BD00B5001D5C
:102090000021002204E00B0001685940001D521C81
:1020A000092AF8DB0068814201D1012000E000200C
:1020B00000BD10B500220FE00A2463430478303CD1
:1020C0001B19401C04782C2C02D004780D2CF3D161
:1020D0000B60091D401C521C092A01DA0023F1E79C
:1020E00010BD10B500220DE0144B042454431B59BD
:1020F0001B120370401C114B042454431B590370E2
:10210000401C521C89B28A42EEDB10BDD40C002068
:102110003C090020040A0020B80B00000400002045
:10212000CC0A002008000020000000201451000804
:10213000C00C0020E50C0020420900201C040020F7
:102140004009002038B5050002F014F90400002011
:10215000C043854200D06D1C02F00CF9001BA84260
:10216000FAD331BD80B501203A490870012280219F
:1021700049013948FFF7AEF80122802109013648AC
:10218000FFF7A8F80122802189013348FFF7A2F860
:1021900001BD80B50022802109012F48FFF79AF880
:1021A0000022802189012C48FFF794F82B48007801
:1021B000002805D10022802149012748FFF78AF82D
:1021C00000202449087001BD80B501202349087012
:1021D0000122802149012048FFF77CF8012280215B
:1021E000C9001D48FFF776F801BD80B500228021A7
:1021F000C9001948FFF76EF816480078002805D185
:102200000022802149011448FFF764F80020134997
:10221000087001BD80B50022802109010E48FFF73A
:1022200059F801BD80B50022802189010A48FFF7D5
:1022300051F801BD80B500228021C9000648FFF792
:1022400049F801BD80B50022802149010248FFF70D
:1022500041F801BDE70C002000040050E60C00200E
:102260000EB4C0B5020003A801900020009001AB9D
:102270000121044878440C3002F08FF8029906B02E
:10228000084700BF312E0000F8B50400002C01D132
:102290000120D1E2B44800680C270740B248056825
:1022A0008020400205402078C00763D5082F05D064
:1022B0000C2F0CD180204002854208D1AB48006829
:1022C000800357D56068002854D10120B4E26068CB
:1022D00080214902884207D1A44800688021490230
:1022E0000143A248016026E06068A021C90288423B
:1022F0000ED19E4800688021C90201439B480160BD
:102300009A4800688021490201439848016012E020
:1023100096480068964901409448016093480068D7
:102320008021490208400090009890480068914937
:1023300001408E480160606800280DD002F01AF854
:1023400006008A480068800314D402F013F8801B4A
:102350006528F6D303206FE202F00CF806008348EC
:102360000068800306D502F005F8801B6528F6D3C7
:10237000032061E22078800752D5E068042F03D063
:102380000C2F2DD1002D2BD178490968490703D591
:10239000002801D101204FE2C5490968C54A0A4019
:1023A000216909021143C24A116070490968092272
:1023B000914308436D49086000F03CFBBE496A4AFE
:1023C000126812091207120F895CC840BB490860E5
:1023D000002000F0BDFCC0B2002821D0C0B22BE22A
:1023E00000282BD0614909680922914308435F49BD
:1023F000086001F0BFFF05005C480068400706D494
:1024000001F0B8FF401B0328F6D3032014E2A848CC
:102410000068A8490140206900020843A4490860F7
:102420002078C00672D5002F47D15048006880053B
:1024300018D5E069002815D10120FDE14B4800685E
:10244000012188434949086001F094FF050047488D
:1024500000684007E4D501F08DFF401B0328F6D348
:102460000320E9E192480068BA490140606A0843E4
:102470008F4908608E4800680002000A216A090638
:1024800001438B4801600120616A490B491C884067
:102490008021090248438849334A12681209120709
:1024A000120F895CC84085490860002000F050FC8C
:1024B000C0B200282AD0C0B2BEE1E06900283FD0F7
:1024C0002A4800688021490001432848016001F042
:1024D00051FF050025480068800506D401F04AFF39
:1024E000401B0328F6D30320A6E1714800689949F0
:1024F0000140606A08436E4908606D480068000248
:10250000000A216A09060143694801602078000732
:1025100046D5606900282FD0B848006801210143E2
:10252000B648016001F026FF0500B4480068800746
:1025300036D401F01FFF401B0328F6D303207BE1B4
:102540000A480068BD4901400848016001F012FFD7
:102550000500064800688005D8D501F00BFF401B38
:102560000328F6D3032067E10C100240001002405C
:10257000FFFFFEFFFFFFFBFFA0480068012188432B
:102580009E49086001F0F6FE05009C48006880073F
:1025900006D501F0EFFE401B0328F6D303204BE1E4
:1025A0002078400700D494E00025A5480068C000CA
:1025B00007D4A3480068802149050143A048016071
:1025C0000125A0480068C00514D49E4800688021F9
:1025D000490001439B48016001F0CCFE0600994888
:1025E0000068C00506D401F0C5FE801B6528F6D33F
:1025F000032021E1A06880214900884207D17F485B
:1026000000688021490001437C4801602FE0A068F8
:1026100000280CD17948006888490140774801605A
:102620007648006888490140744801601FE0A0684E
:10263000A021C90088420ED1704800688021C900DD
:1026400001436E4801606D480068802149000143E4
:102650006A4801600BE069480068784901406748B2
:102660000160664800687849014064480160A068DC
:1026700000280ED001F07EFE06006048006880054C
:102680001ED401F077FE801B70498842F5D30320E9
:10269000D2E001F06FFE06005848006880050FD5B3
:1026A00001F068FE801B69498842F5D30320C3E02E
:1026B00004100240FFE0FFFFCC5000080C00002097
:1026C000EDB2012D05D15E480068614901405C48CA
:1026D0000160207880063FD5A069002820D05D48A1
:1026E0000068012101435B4801605B4800680121EB
:1026F000014359480160594800688021890101431C
:102700005648016001F036FE050052480068800717
:1027100022D401F02FFE401B0328F6D303208BE0C8
:102720004C480068012188434A4908604B480068CA
:102730004B4901404948016001F01CFE0500454835
:102740000068800708D501F015FE401B0328F6D36A
:10275000032071E0FF1FFFFFA06A00286BD00C2F41
:102760004ED0A06A022834D1AD480068AD4901407E
:10277000AB48016001F0FEFD0500A948006880013A
:1027800006D501F0F7FD401B0328F6D3032053E0E4
:10279000A5480068A5490140E06A0843216B014350
:1027A000606B0843A04908609D4800688021490487
:1027B00001439B48016001F0DDFD0400984800687A
:1027C000800138D401F0D6FD001B0328F6D3032086
:1027D00032E093480068934901409148016001F05C
:1027E000C9FD04008E480068800124D501F0C2FDB7
:1027F000001B0328F6D303201EE000BF5010024048
:10280000A06A012801D1012016E0874800688021D4
:1028100049020140E26A91420BD1F0218903014053
:10282000226B914205D1C02109040140606B8142B5
:1028300001D0012000E00020F2BD0000FFFEFFFFFC
:102840003810024000700040FFFBFFFF89130000BA
:10285000FFFFFFEF0810024034100240200001404B
:10286000FFDFFFFF70B50400002C01D10120D5E08F
:102870000D006F4800680100C907C90FA9420FD2B7
:102880006B4800680121884328436949086068480B
:1028900000680100C907C90FA94201D00120BDE0AD
:1028A0002078800707D560480068F0218843A16838
:1028B00001435D4801602078C0076CD5606802283C
:1028C00005D157480068800319D40120A6E060684C
:1028D000032805D152480068800110D401209DE0F2
:1028E0006068012805D14E480068400707D40120E0
:1028F00094E04B480068800501D401208EE04A48EE
:10290000006803218843616801434748016001F082
:1029100031FD0600606802280DD1434800680C2193
:102920000140082937D001F025FD801B71498842FC
:10293000F3D3032072E0606803280DD13A480068A1
:102940000C2101400C2926D001F014FD801B69499F
:102950008842F3D3032061E0606801280DD132483A
:1029600000680C210140042915D001F003FD801BF3
:1029700060498842F3D3032050E02B4800680C21C3
:102980000140002907D001F0F5FC801B594988421D
:10299000F3D3032042E0264800680100C907C90FAD
:1029A0008D420FD2224800680121884328432049E4
:1029B00008601F4800680100C907C90FA94201D07B
:1029C00001202BE02078400707D5174800684A49C6
:1029D0000140E0680843144908602078000708D5E2
:1029E00011480068454901402069C00008430E496C
:1029F000086000F01FF842490B4A126812091207DA
:102A0000120F895CC8403F490860002000F0A0F91F
:102A1000C0B2002801D0C0B200E0002070BD0000AC
:102A200000100240FFFFFFFE0C100240FFFF02FFFC
:102A30000020024000B5284801680C200840042806
:102A400004D008280AD00C280AD029E02F480068B2
:102A5000C00601D52E4800E02E482CE02E482AE082
:102A60002E488A0C1207120F805C890D8907890F86
:102A7000491C194A1268D20304D5274A504301F071
:102A800042FD0CE0214A1268D20604D5204A504388
:102A900001F039FD03E01F4A504301F034FD0AE024
:102AA0001F480068400B4107490F0120491C88401E
:102AB00080210902484300BD12480068704780B574
:102AC000FFF7FAFF1749104A1268120A5207520F0D
:102AD000895CC84002BD00000C10024080B5FFF7C1
:102AE000EBFF1049084A1268D20A5207520F895C5C
:102AF000C84002BD89130000FFF8FFFFFFC7FFFFBA
:102B0000CC5000080C0000200C10024000100240C5
:102B100000093D000024F40000127A00EC50000887
:102B2000041002401C51000870B504002068822186
:102B300009010140002900D1AAE020788006206820
:102B40000005002574480068C00007D4724800687A
:102B50008021490501437048016001256F480068E4
:102B6000C00514D46D4800688021490001436B48BA
:102B7000016001F0FFFB060068480068C00506D44C
:102B800001F0F8FB801B6528F6D30320C3E06448FE
:102B90000168C020800308406168C02292030A4097
:102BA000904205D1A168C02292030A4090420DD004
:102BB0006068C02189020140C0208002814205D1A5
:102BC00057480068800301D50120A4E055480168FA
:102BD000C02080020840002835D06168C0229202DF
:102BE0000A40904202D02178890608D4A168C02208
:102BF00092020A40904226D02068000523D5494819
:102C000001684948084047490968802212030A437D
:102C100044490A6043490968444A0A4041490A60F4
:102C200040490860C0050ED501F0A4FB06003D48F0
:102C30000068800507D401F09DFB801B3C49884259
:102C4000F5D3032067E06068C02189020140C020FD
:102C5000800281420AD132480068364901406068EA
:102C6000C022920302400A432D4802602D480068AA
:102C70006168C02292020A4002432A480260EDB213
:102C8000012D05D1244800682B49014022480160EC
:102C90002078C00707D52948006803218843E168E8
:102CA0000143264801602078800707D52348006843
:102CB0000C218843216901432048016020784007A6
:102CC00007D51E4800681E490140606908431B493A
:102CD00008602078000707D51848006819490140A6
:102CE000A0690843154908602078400607D51348B5
:102CF000006815490140206A08431049086020789F
:102D0000000607D50D48006810490140E0690843F6
:102D10000A490860002070BD381002400070004071
:102D20000010024050100240FFFFFCFFFFFFF7FFC2
:102D300089130000FFFFCFFFFFFFFFEF4C100240A1
:102D4000FFF3FFFFFFCFFFFFFFFFFFFBFFFFF3FFDF
:102D500038B5050000240A480068FA21890001F00E
:102D6000D2FBFEF734FB002801D0012405E0290046
:102D700000220020C043FEF720FB2000C0B232BD7D
:102D80000C00002080B50B48006801210143094870
:102D90000160094800688021490501430648016037
:102DA000012200211720FEF708FB1720FEF70AFB7F
:102DB00001BD00BF341002403810024030B50C0095
:102DC000002102E00588491B801C25006C1EEDB225
:102DD000002DF7D11800431EC0B2002803D0108880
:102DE000091A921CF6E7080080B230BD00B5002039
:102DF00004E0801C442101F086FB08005E49411874
:102E0000098889B2491C5D4A8218128892B291429F
:102E1000EFD000BD70B504000D00FFF7E7FF0028FC
:102E20001AD157480088208056480088608056484C
:102E30000088A08055480088E08055480088288098
:102E400054480088688054480088A8805348008807
:102E5000E8805348068823E0801E494941180988C4
:102E600021804849411809886180474941180988EB
:102E7000A180464941180988E180454941180988DF
:102E800029804449411809886980434941180988C3
:102E9000A980424941180988E980414940180688BB
:102EA00004232A0004212000FFF788FF80B2B6B275
:102EB000801B002801D1012000E00020C0B270BDBD
:102EC000F8B506000D0001F075FBFFF78FFF040059
:102ED00004232A0004213000FFF770FF0700328826
:102EE00027482118012001F087FB72882548211806
:102EF000012001F081FBB28823482118012001F054
:102F00007BFBF28821482118012001F075FB2A88FB
:102F10001F482118012001F06FFB6A881D48211805
:102F2000012001F069FBAA881B482118012001F04B
:102F300063FBEA8819482118012001F05DFBBFB24C
:102F40003A0017482118012001F056FB0A482018C2
:102F500005886D1CA41C2000442101F0D4FA064809
:102F60000C18ADB22A002100012001F045FB208899
:102F700001F038FBF1BD000000000808020008085D
:102F80004400080888000808CC0008081001080858
:102F90005401080898010808DC0108082002080804
:102FA000640208080FB581B000200E4908700E4871
:102FB00001A9102200F034F900200A49887001208C
:102FC0000849487005B000BD1FB5040068460649B1
:102FD000102200F025F920006946102200F020F9A7
:102FE0001FBD0000740C00207C0C0020F8B50021EF
:102FF0006A46118000216A46518000216A4691800C
:1030000000216A46D18000216A46118100216A466A
:10301000518100216A46918100216A46D181694629
:10302000102200F0FDF805B000BD1CB50400C9B2C7
:10303000684600F098F868468088002802D1002091
:10304000C0430AE0009802214843205A6946898813
:10305000084201D0012000E0002016BD1CB504008C
:10306000C9B2684600F07FF868468088002802D11F
:103070000020C04315E00098022148432018008931
:1030800069468988084201D100200AE0009802219F
:103090004843205A69468988084201D0002000E050
:1030A000012016BD7CB504000E0015003100C9B228
:1030B000684600F058F868468088002801D1002052
:1030C00019E02000009902225143411809896A46FB
:1030D0009288114201D100200DE0EDB2002D00D008
:1030E0000125EDB23100C9B2FFF79FFF854201D142
:1030F000012000E0002076BD3EB504001500C9B2F5
:10310000684600F030F868468088002802D1002028
:10311000C04327E0009802214843201800896946EF
:103120008988014300980222504320180181EDB2A2
:10313000002D0BD0009802214843205A6946898807
:10314000014300980222504321520AE000980221D4
:103150004843205A6946898888430099022251438E
:10316000605200203EBDC0B50200C9B270200840C8
:10317000502819DBC9B230200840C0B2102804D052
:10318000202805D0302806D007E00120009004E078
:103190000220009001E00320009001200907090FA0
:1031A00088406946888036E000200090C9B2102926
:1031B0000ED0112910D0122912D0202914D0212983
:1031C00016D0222918D030291AD031291CD01FE05E
:1031D0000120694688801EE00220694688801AE046
:1031E00004206946888016E008206946888012E03D
:1031F0001020694688800EE02020694688800AE019
:1032000040206946888006E080206946888002E088
:10321000002069468880684603C803C2083A03BD97
:10322000124207D08B0706D00B78491C0370401C54
:10323000521EF7D87047830706D00B78491C0370DD
:10324000401C521EF9D1704770B4103A03D378C9AC
:10325000103A78C0FBD2530701D318C918C001D562
:1032600008C908C0D20704D30B880380891C801CBE
:10327000002A01D50B78037070BC704710B50400AC
:10328000002C01D1012002E1606D002807D100204F
:10329000A0650020502160542000FEF727FA606DE1
:1032A000C00603D420688068400708D5606D1021EF
:1032B000014361650020502160540120E7E0606D0A
:1032C0008C490140022008436065206880688007BF
:1032D000800F012805D1206801680800C007C00FD1
:1032E00000E00020002839D16068C021090688422A
:1032F00009D060688021C905884204D060688021B7
:10330000090688420CD12068006980008008216885
:10331000086120680069616801432068016111E06B
:10332000206800698000800821680861844800687E
:103330008449014082480160814800686168014316
:103340007F4801602068C068182188432168C860F0
:103350002068C068A16801432068C160784800689F
:10336000794901407648016075480068616B4906FB
:1033700001437348016020688068C00006D420685B
:103380008068802149050143206881602068C06809
:103390006E4901402068C1602069022801D10421E2
:1033A00000E000212068C068E26811432022A25C8E
:1033B00052030A432C21615C49001143226B0A43EA
:1033C000A16989031143E269D2030A4302432068D9
:1033D000C260606AFF21C231884207D02068C0689D
:1033E000616AA26A0A4302432068C2602120205C0D
:1033F000012813D12020205C002807D12068C06854
:103400008021490201432068C16007E0606D2021EE
:1034100001436165A06D01210143A165E06B0128B5
:1034200016D1206800697F49014020680161206849
:103430000069216C626C0A43A16C1143014320684E
:10344000016120680069012101432068016109E0F0
:1034500020680069C00705D52068006901218843FC
:103460002168086120684069072188432168486114
:1034700020684069A16B0143206841610020A0657C
:10348000606D02218843012101436165002010BD68
:1034900010B50400002021688968490727D450210D
:1034A000615C012901D1022023E001215022A154B5
:1034B000E169012902D0200000F02DF9C0B20028F6
:1034C00016D1616D584A0A40802149001143616557
:1034D0000021A16500215022A1541C212268116005
:1034E0002168896804220A4321688A6000E002207A
:1034F000C0B210BDFFFEFFFF10B504000020502039
:10350000205C012801D1022018E0012050216054E4
:10351000200000F08CF9C0B200280BD1200000F090
:1035200043F9C0B2002805D1616D404A0A4001212B
:103530001143616500215022A154C0B210BD0000AA
:1035400008270140FFFFC3FFFFFFFFFD1902FEFF39
:10355000F8B50400002000206069082801D1082582
:103560000DE02068C068C00708D5606D20210143C8
:103570006165002050216054012051E00C250F00AE
:1035800000F0F8FE0600206800682840002813D1EB
:103590000020C0438742F6D0002F04D000F0EAFE9E
:1035A000801B8742EFD2606D0421014361650020DA
:1035B00050216054032033E0606D80218900014375
:1035C00061652068C068C02109010140002920D13F
:1035D0002020205C00281CD120680068000718D536
:1035E0002068806840070CD4206840680C2188431C
:1035F00021684860606D0D49014001200843606505
:1036000007E0606D202101436165A06D0121014348
:10361000A165A069002802D10C2021680860002063
:10362000F2BD000003FCFFFFFEF1FFFFFFFEFFFF06
:103630000068006C704738B505000C005020285C0D
:10364000012801D1022064E001205021685428683B
:103650008068400708D5686D202101436965002016
:1036600050216854012054E060684D49884229D0B7
:103670002868806A21684903490B014328688162F0
:103680002068400309D547480068802109040143A8
:10369000444801600A2000F0FBF82068800306D54A
:1036A000404800688021C90301433E48016020680A
:1036B000C0032AD53B4800688021490401433948AA
:1036C000016022E02868806A21684903490B884329
:1036D000296888622068400305D5324800686A4935
:1036E0000140304801602068800305D52D480068FE
:1036F000664901402B4801602068C00305D5294870
:1037000000686C490140274801600020502168543E
:10371000002032BD000038B5040000202068806819
:103720008007800F012805D1206801680800C007C4
:10373000C00F00E0002000282ED1206880685E497C
:103740000140002909D0606D102101436165A06D21
:1037500001210143A16501201FE02068806801214B
:10376000014320688160012000F092F800F002FE21
:10377000050020680068C0070ED400F0FBFD401B68
:103780000B28F6D3606D102101436165A06D012106
:103790000143A165012000E0002032BD00000000CF
:1037A000011000000827014038B5040000202068FF
:1037B00080688007800F012805D120680168080013
:1037C000C007C00F00E0002000282ED020688068CD
:1037D0000521014001291ED1206880680221014392
:1037E0002068816003202168086000F0C3FD0500A7
:1037F00020688068C00718D500F0BCFD401B0B286E
:10380000F6D3606D102101436165A06D0121014374
:10381000A16501200AE0606D102101436165A06D82
:1038200001210143A165012000E0002032BD38B52F
:103830000400002020688068400723D52068806845
:10384000400709D520688068800705D42068806813
:10385000102101432068816000F08CFD0500206884
:10386000806840070ED500F085FD401B0B28F6D37D
:10387000606D102101436165A06D01210143A165C7
:10388000012000E0002032BDFFFF7FFFFFFFBFFFF0
:1038900018B5040009480068094900F034FE4443A3
:1038A000009402E00098401E009000980028F9D192
:1038B00011BD0000FFFFFFFE170000800C0000207C
:1038C00040420F0010B50400002C01D101200EE091
:1038D0002079002804D1002060712000FDF78AFFC4
:1038E000022020710020E06001202071002010BD26
:1038F00010B5002300234379012B01D102201BE0E6
:10390000012343710223037103681B680B4C94402D
:10391000A3430C6849682143914019430368196027
:1039200001680968C023934099430268116001212E
:10393000017100214171002010BD0000FE0F000048
:10394000F8B504000F0015001E00002C01D1012065
:103950003EE0606F002805D10020702160542000F7
:10396000FDF7A9FF242060672068006801218843D3
:1039700021680860200000F039FA012801D10120F7
:1039800026E0606A002802D0200000F0DFFB2068FB
:1039900080688021C90101432068816020688068B7
:1039A0000C4901400F4320688760680531040143DA
:1039B00020680068084A02401143206801602068BE
:1039C00000680121014320680160200000F030FC04
:1039D000F2BD0000FF7FFFFFFFFF00FC38B55B007A
:1039E0006C462370002905D16946097801230B43F1
:1039F00069460B701400050000220121684600F0A2
:103A000035FE02002100280000F030FE32BDF8B57E
:103A100004000F0015001E006019001F00F03EF8A2
:103A2000010000913300DBB22A00121F3900200090
:103A3000FFF7D4FF0099814201D1012000E000206E
:103A4000F2BD38B5040008001900049D4006400E80
:103A500020702078D20102432270601C00F015F81B
:103A60002B00DBB2052200212000FFF7B7FF010089
:103A7000601D00F00AF831BD80B5D2B2009200237B
:103A80000022C9B2FFF7DDFF01BD0A0E02700A0075
:103A9000120C42700A0A8270C170704700B50100B2
:103AA0000020002204E00002D2B28B5CC018521C3D
:103AB000D2B2042AF7DB00BD10B50C00C0B26028FA
:103AC00003D1FEF757FA206004E0C0B2612801D1AB
:103AD0004020206010BD80B5020008001900D2B25D
:103AE000602A02D1FEF73BFA04E0D2B2612A01D18A
:103AF00000F002FE01BD80B5C0B2602802D1FEF721
:103B000001FA04E0C0B2612801D100F0EFFD01BD6F
:103B10007047704770477047704780B5C0B2122831
:103B20002CD050280CD0512814D052281CD0532807
:103B30002ED054282FD0552830D0562831D032E0FE
:103B400001201949086019481949086001201949DC
:103B5000087028E0022014490860174814490860DA
:103B60000120144908701EE003200F490860134823
:103B70000F49086001200F49087014E004200A4929
:103B800008600F480A49086001200A4908700AE0E5
:103B9000FEF750FB07E0FEF745FB04E0FEF73AFBBB
:103BA00001E0FEF74FFB01BDD00C0020251F0008EF
:103BB000CC0C0020DF0C0020411F00080D4700083E
:103BC00059140008FEB50400606F20286CD10E0067
:103BD000002E03D01500ADB2002D01D1012064E00C
:103BE000A06880214901884207D12069002804D1BA
:103BF0003000C00701D5012057E07020205C01286B
:103C000001D1022051E00193012070216054002075
:103C1000E0672120606700F0ADFB070050202552CF
:103C200052202552A06880214901884204D1206990
:103C3000002801D1002514E03500002611E0287885
:103C4000216888626D1C07E0002DF8D13088C0051E
:103C5000C00D21688862B61C5220205A401E522195
:103C600060525220205A00280BD0019800903B004F
:103C700000228021200000F011FB0028E4D0032066
:103C800013E0019800903B0000224021200000F04A
:103C900005FB002801D0032007E0202060670020FA
:103CA00070216054002000E00220FEBDFEB504003B
:103CB0001D00A06F202800D094E00E00002E03D03D
:103CC0001700BFB2002F01D101208CE0A068802135
:103CD0004901884207D12069002804D13000C0077B
:103CE00001D501207FE07020205C012801D1022055
:103CF00079E00120702160540020E0672220A06755
:103D000000F038FB0190582027525A202752A06813
:103D10008021490188420AD12069002803D1324814
:103D20005C21605224E0FF205C21605220E0A0680A
:103D300000280AD12069002803D1FF205C216052AD
:103D400016E07F205C21605212E0A06880214905C6
:103D500088420AD12069002803D17F205C2160526B
:103D600006E03F205C21605202E000205C216052AE
:103D700002955C20275AA06880214901884204D11D
:103D80002069002801D1002515E03500002612E049
:103D90002068406A3900014029706D1C06E0002D42
:103DA000F6D12068406A38403080B61C5A20205A2C
:103DB000401E5A2160525A20205A00280BD00298E7
:103DC0000090019B00222021200000F067FA0028CB
:103DD000E5D0032007E02020A06700207021605478
:103DE000002000E00220FEBDFF01000070B50400CD
:103DF00010200020002500212268874B9A42FFD026
:103E0000A2682369134366691E43E269324323684B
:103E10001B68B24E1E40324323681A602268526803
:103E2000AF4B1340E2681A4323685A60A2692368C3
:103E3000794EB34202D01300226A1A4323689B686A
:103E4000A84E1E40324323689A602268A64B9A42CD
:103E500015D1A64A12689207920F002A05D0022AAD
:103E600005D006D3032A06D007E0012245E002224E
:103E700043E0042241E008223FE010223DE02268B6
:103E8000AE4B9A4216D1994A12680C231340002B6C
:103E900006D0042B08D0082B04D00C2B06D007E04A
:103EA00000222AE0022228E0042226E0082224E060
:103EB000102222E02268584B9A421DD18B4A126888
:103EC000C0231B011340002B0CD08022D200934250
:103ED0000CD080221201934206D0C02212019342DC
:103EE00006D007E0002208E0022206E0042204E0F7
:103EF000082202E0102200E010222368464EB3425E
:103F00004AD1D2B2002A06D0022A08D0042A0ED002
:103F1000082A10D012E0FEF7D2FD01000FE0884819
:103F20000068C00601D5874900E0874907E0FEF731
:103F300081FD010003E08021090200E00125002944
:103F400000D1F3E0606803225043814205D36068EA
:103F5000802252015043884201D20125E6E0080048
:103F6000002180225200002300F086FD02000B0099
:103F7000606840080021801859416268002300F001
:103F800094FDC0218900411AA84A914202D22168B9
:103F9000C860CBE00125C9E0E16980231B0299429A
:103FA00065D1D2B2002A08D0012A12D0022A1CD030
:103FB000042A33D0082A3DD046E0FEF780FD0221D6
:103FC0004843616849084018616800F09CFA80B273
:103FD0003BE0FEF783FD0221484361684908401831
:103FE000616800F090FA80B22FE055480068C00682
:103FF00008D560684008A7494018616800F083FA56
:1040000080B207E060684008A3494018616800F08A
:104010007AFA80B219E000BF00480040FEF70AFDBE
:1040200002214843616849084018616800F06BFA52
:1040300080B20AE060684008802149024018616847
:1040400000F061FA80B200E0012501001039AD4AAC
:1040500091420AD20200AB49114040084007400F8C
:10406000084380B22168C86060E001255EE0D2B2FA
:10407000002A08D0012A10D0022A18D0042A37D0EA
:10408000082A3FD048E0FEF71AFD61684908401849
:10409000616800F038FA80B23FE0FEF71FFD61680A
:1040A00049084018616800F02EFA80B235E02448D3
:1040B0000068C00608D56068400822494018616859
:1040C00000F021FA80B207E0606840081E494018FD
:1040D000616800F018FA80B21FE000BFF369FFEFDB
:1040E000FFCFFFFFFFF4FFFF003801404C100240FC
:1040F000FEF7A0FC616849084018616800F003FA07
:1041000080B20AE0606840088021090240186168B6
:1041100000F0F9F980B200E0012501001039794A78
:10412000914202D22168C86000E00125002020668B
:10413000002060662800C0B270BD0000004400404E
:104140000010024000093D000024F40000B52421C5
:10415000415CC90707D5016849686B4A0A40816A12
:104160001143026851602421415C890707D5016829
:104170004968664A0A40C16A1143026851602421B5
:10418000415C490707D501684968614A0A40016BEB
:104190001143026851602421415C090707D5016879
:1041A00049685C4A0A40416B11430268516024210E
:1041B000415CC90607D501688968574A0A40816B86
:1041C0001143026891602421415C890607D501688A
:1041D0008968524A0A40C16B1143026891602421E8
:1041E000415C490614D5016849684D4A0A40016C92
:1041F000114302685160016C80225203914207D141
:1042000001684968474A0A40416C1143026851609D
:104210002421415C090607D501684968424A0A40E1
:10422000816C11430068416000BD000000FD0F007B
:1042300038B504000020E06700F09CF80500206815
:10424000006800070CD5394800902B00002280211F
:104250008903200000F022F8002801D0032018E094
:104260002068006840070CD5304800902B000022E1
:104270008021C903200000F011F8002801D003209C
:1042800007E0202060672020A06700207021605494
:10429000002032BD00127A000048E801F4B50400A5
:1042A0000D001F00069E2068C0692840A84201D169
:1042B000012000E000206946097888421FD10020D3
:1042C000C0438642EFD000F055F8C01B864201D3B0
:1042D000002EE8D12068006815490140206801607F
:1042E00020688068012188432168886020206067F9
:1042F0002020A067002070216054032000E00020EF
:10430000F2BD0000F0FF0000FFFFFDFFFFFFFEFF1A
:10431000FFFFFBFFFF7FFFFFFFEFFFFFFFDFFFFF61
:10432000FFFFEFFFFFFF9FFFFFFFF7FFFFFFFF0113
:104330005FFEFFFF0CB418B583B004000A0006A8A6
:10434000029001940020009002AB01A90848784433
:104350001E3000F022F80021019A1170002801D4CB
:104360000198001B04B0019910BC03B0084700BFBE
:1043700033CCFFFF01480068704700BFD80C002015
:1043800070B506000800002B06D014001D0021782F
:10439000B047641C6D1EFAD170BDF8B588B00290AC
:1043A00001910392009309E00123039A0199029875
:1043B000FFF7E6FF01900398401C039003980078F4
:1043C000002821D02528EFD1039840780399891C33
:1043D00003910100252812D058286BD0632815D0EE
:1043E00064281DD069281BD06F2863D070286AD03C
:1043F000732872D075285DD078285BD0DEE70198ED
:10440000029A90470190D9E709B0F0BD0098006882
:10441000009908600168001D009A1060C9B2EEE7BB
:1044200000980068009908600468001D0099086001
:10443000002C04D52D210198029A90470190642008
:104440006F2801D1082506E020210143782901D0F9
:104450000A2500E010250B272600642803D1002C34
:1044600001D571420E0004007F1E04973000290020
:1044700000F049F83031C9B23A2902DB2000513846
:10448000091805A8C019049001703000290000F037
:104490003AF8060001D0002FE6DC049C01980B21BD
:1044A000CD1BAFD0029E2178B047641C6D1EFAD19F
:1044B0000296A7E700990968009A11600C68091D27
:1044C000009A1160BCE700980068009908600468D1
:1044D000001D009908607820B2E7009800680099F4
:1044E00008600468001D00990860200000F012FBBD
:1044F0000500019886D0029E2178B047641C6D1E8D
:10450000FAD102967EE70022030A8B420BD20309FE
:104510008B4219D243088B422ED2411A00D2014657
:10452000524110467047FF2209023FD012068B42CB
:1045300005D3121209028B4201D312120902030998
:104540008B4219D300E0090AC3098B4201D3CB0186
:10455000C01A524183098B4201D38B01C01A5241C8
:1045600043098B4201D34B01C01A524103098B42CC
:1045700001D30B01C01A5241C3088B4201D3CB00B7
:10458000C01A524183088B4201D38B00C01A52419A
:1045900043088B4201D34B00C01A5241884200D3DA
:1045A000401A5241CFD201461046704708B500F07C
:1045B000B9FA08BD00B50F480068C00710D5EFF381
:1045C000108072B62449254A11602549234A11609A
:1045D00080F3108807480068C00701D5012000E07B
:1045E000002000BD0348006801210143014801602B
:1045F000002070470420024070B504000D00160032
:1046000001201948007C012801D1022022E001206C
:1046100015490874134800F087FAC0B2002815D174
:104620000021114A5161022C01D12E6008E0012CB9
:1046300001D12E8004E0002C01D12E7000E0012079
:10464000C0B2002802D0074800F06EFA0021064AE6
:104650001174C0B270BD0000EFCDAB890C200240D8
:104660000504030250C30000980C002080B500F040
:104670001CF802BD00B5002004E01949042343439F
:10468000CA50401CFF280CDC020000210829F4DA83
:10469000D30701D4520802E05308124A5A40491C79
:1046A000F4E701201049087000BD70B504000D004A
:1046B00016000D480078002801D1FFF7DBFFF14319
:1046C000002009E00A0A064B265CC9B271400426A4
:1046D000714359585140401CA842F3D3C84370BDA0
:1046E0001C0000202083B8EDE40C002080B54021A0
:1046F000DA48FDF7EBFB01BD00B5002103E0D74A26
:10470000525C4254491C4029F9DB00BD80B5FDF7DD
:104710005BFDFA208000FDF715FDD920800000F038
:1047200091F9002000F0E1F8CD4800F08BF902206B
:1047300000F0DBF8CB4800F085F9042000F0D5F854
:10474000C94800F07FF9062000F0CFF800F098F893
:104750001E20FDF7F7FCC14800F009F8002000F02A
:1047600071F96420FDF7EEFCFDF73FFD01BD10B5CA
:104770000021212900DB82E00022072AF9DABB4B65
:10478000082454431B5B9BB21B0A4354B74B0824B9
:1047900054431B5B44186370B44B082454431B19E7
:1047A0005B889BB21B0A4418A370B04B0824544387
:1047B0001B195B884418E370AC4B082454431B1945
:1047C0009B889BB21B0A44182371A84B08245443AE
:1047D0001B199B8844186371A44B082454431B196C
:1047E000DB889BB21B0A4418A371A04B08245443D6
:1047F0001B19DB884418E3719C4B082454431B1994
:104800001B899BB21B0A44182372984B08245443FB
:104810001B191B8944186372944B082454431B19B9
:104820005B899BB21B0A4418A372904B0824544323
:104830001B195B894418E3728C4B082454431B19E1
:104840009B899BB21B0A44182373884B082454434A
:104850001B199B8944186373844B082454431B1908
:10486000DB899BB21B0A4418A373804B0824544372
:104870001B19DB894418E3731031921C7DE710BDCE
:1048800000B500202EE0794908224243895A89B2B6
:104890000909764A08234343D15274490822424306
:1048A0008918498889B20909704A08234343D218F4
:1048B00051806E49082242438918898889B20909C2
:1048C0006A4A08234343D218918068490822424328
:1048D0008918C98889B20909644A08234343D21850
:1048E000D180401C0828CEDB00BD10B5040000219B
:1048F0005F4800F0C3F9002801D0FCF749FB0A200B
:10490000FDF720FC5A48FEF7C3FD002802D0FCF753
:104910003FFBFCE764215648FEF71AFE5448FEF7B9
:1049200087FE524908226243895A08184F490822D3
:104930006243885264214E48FEF70AFE4C48FEF757
:1049400077FE4A490822624389184988081847496E
:10495000082262438918488064214548FEF7F8FD23
:104960004348FEF765FE4149082262438918898859
:1049700008183E49082262438918888064213C480F
:10498000FEF7E6FD3A48FEF753FE38490822624337
:104990008918C98808183549082262438918C880CF
:1049A0003348FEF775FD64213148FEF7D1FD3048EC
:1049B000FEF73EFE2D49082262438918098908182E
:1049C0002A49082262438918088164212848FEF791
:1049D000BFFD2748FEF72CFE2449082262438918B0
:1049E00049890818214908226243891848816421AD
:1049F0001F48FEF7ADFD1E48FEF71AFE1B490822B0
:104A0000624389188989081818490822624389185D
:104A1000888164211648FEF79BFD1548FEF708FEC5
:104A20001249082262438918C98908180F490822C7
:104A300054430919C8810220FDF784FB0C48FEF796
:104A40005BFD10BD80B5030000220021094800F085
:104A5000A4F90021074800F075F901BD340C0020CD
:104A6000D10500002E0A0000920D0000F40B00207A
:104A70004C0B0020B00C002030B4434351435D1870
:104A8000010C0C00130C5C432D1980B2434392B20D
:104A900051430024C918644124040B04090C09196A
:104AA0005043C018694130BC7047124224D099422B
:104AB00028D970B500251B4202D00C00002109E066
:104AC0000024012649186441944200D3A41A764177
:104AD000F8D33100012601E0764109D20018644183
:104AE0006D41A41A9D41F7D2A4185D41B619F5D3C2
:104AF000300022002B0070BD1B42D8D108B500F059
:104B00005BF908BD01D19042D3D202000B00002115
:104B100000207047010000E0491C0A78002AFBD100
:104B2000081A70477047FEE738B50400FFF722FC0B
:104B3000050051480068C0070CD50020C0438442DE
:104B4000F7D0002C04D0FFF715FC401B8442F0D2B4
:104B5000032027E048480068800702D50220464924
:104B6000086045480068C00517D4434800688005C0
:104B700013D44148006840050FD43F480068000541
:104B80000BD43D480068800407D43B48006880038C
:104B900003D439480068C00303D500F005F80120AC
:104BA00000E0002032BD000000B500203249096855
:104BB000C90509D52F49496902220A432D494A618D
:104BC00001008020400008432B490968890509D568
:104BD0002849496901220A4326494A610100802087
:104BE0008000084324490968490509D521494969D4
:104BF00008220A431F494A6101008020C00008437F
:104C00001D490968090509D51A49496904220A4359
:104C100018494A61010080200001084316490968CB
:104C2000890409D51349496910220A4311494A6187
:104C300001008020800108430F490968890308D5D5
:104C40000C49496920220A430A494A61010020208F
:104C5000084309490968C90309D506494969402239
:104C60000A4304494A610100802040020843024986
:104C7000086000BD980C002018200240F8B5040020
:104C80000025002000205020205C012801D10220B6
:104C900055E0012050216054206880688007800F13
:104CA000012805D1206801680800C007C00F00E096
:104CB0000020002839D1606D2149014002200843BD
:104CC00060652068C0688607B60F2068C068032149
:104CD00088432168C86020688068802109060143F4
:104CE00020688160FFF746FB070020688068002885
:104CF0000FD5FFF73FFBC01B0B28F6D3606D0221D9
:104D00008843102101436165002050216054012037
:104D100015E02068C06806432068C660606D022107
:104D2000884301210143616504E0606D2021014356
:104D3000616501250020502160542800C0B2F2BDF9
:104D4000FFFEFFFF00B5002200224279012A01D1B7
:104D5000022021E0012242710222027102681268DF
:104D600001238B40134301680B600168096804222A
:104D700011400268136838221A40042907D1382AE2
:104D800005D10168496801220A4301684A6001218E
:104D9000017100214171002000BD81B0002100910E
:104DA0000068009000980832801800900098036016
:104DB000002001B07047FEE77047FEE71648006824
:104DC00080214900014314480160144800681449D7
:104DD00001401248016010480068124901400E4825
:104DE000016011480068012188430F4908600A48A2
:104DF00000680E49014008480160084800680C49F5
:104E000001400648016000200A4908608020000532
:104E10000949086070470000001002400C10024071
:104E20000C40FF88F6FFF6FE08100240FFFFFBFF74
:104E3000FFFF02FF1010024008ED00E010B500F087
:104E40003BF802000023DB4300241068984203D0A3
:104E500011000220ABBE14605068984203D0111DAF
:104E60000220ABBE546010BDF0B583B0040000F06A
:104E700023F8A10047183D680026F643B54216D135
:104E800000BF00BF3D68B5420FD100BF09A0009030
:104E9000002C01D1002000E00420019003200290AA
:104EA00069460120ABBE05003D6000BF00BF280081
:104EB00003B0F0BD3A747400004870471000002041
:104EC00070B40123002413E00168001D194202D0D0
:104ED0004D466D1E49190C60091D121F042AFAD295
:104EE0000D00960701D50C80AD1C1A4000D02C7027
:104EF0000268001D002AE7D170BC704780B500F041
:104F000015F801BD80B5084800688069E021C90036
:104F10000140002903D00448FBF77FF902E0024872
:104F2000FBF770F901BD0000A80B002002480068E3
:104F3000401C014908607047D80C002030B40122A1
:104F40000168001D00290FD00368C31844680830A9
:104F5000144202D04D466D1E64191D6825601B1D4C
:104F6000241D091FECD0F8E730BC704710B5074985
:104F700079441831064C7C44163404E0081D0A6854
:104F8000891888470100A142F8D110BD2C0000000B
:104F90004C00000018B583B0030014000093019189
:104FA000029469460520ABBE01221900201A00BFF9
:104FB00000BF04B010BD000009FFFFFFCC0C0000D3
:104FC0001C0000200000000075FFFFFF1C00000017
:104FD000C8000000000000200000000030B583B0D1
:104FE0000C0015000120FFF73FFF0090019402958F
:104FF00069460520ABBE281A03B030BDFEE70000AD
:1050000000F00DF8002801D0FFF7B0FF00BF00BF8F
:10501000002000BF00BFFBF7B7FE00F002F8012040
:10502000704780B500F002F801BDFEE7074638463C
:1050300000F002F8FBE7FEE780B5FFF7FFFE024A4B
:1050400011001820ABBEFBE72600020080B56946C0
:1050500008700122012000F008F8012802D16846FA
:10506000007802BD0020C04302BD80B5002802D4F4
:1050700000F003F802BD002002BD80B5002901D177
:10508000002002BD012801D0022802D1FFF7A6FFAF
:1050900002BDFFF77FFF02BD03000000584D333B08
:1050A000584D343B00002000FFFFFFFFFFFFFFFFD4
:1050B0004501010038B505000C002000FFF7C6FFD0
:1050C000A04200D00025280032BDFEE7000000000D
:1050D0000000000001020304060708090148804798
:1050E00001480047BD4D0008F950000803040608B8
:1050F0000C1018203000000000BF00BF00BF00BF30
:10510000FFF77EFF0000000000000000000000002C
:10511000000000005855362C25640D0000000000EA
:1051200001020304FEE7FEE7FEE7FEE7FEE7FEE717
:10513000FEE7FEE7FEE7FEE7FEE7FEE7FEE7FEE747
:10514000FEE7FEE7FEE7FEE7FEE7FEE7FEE7FEE737
:04000005080050F9A6
:00000001FF
